:100000000C9406060C944A060C944A060C944A0674
:100010000C944A060C944A060C944A060C944A0620
:100020000C944A060C944A060C94E40D0C94B60EFB
:100030000C94321D0C944A060C944A060C944A0601
:100040000C944A060C944A060C944A060C944A06F0
:100050000C944A060C94A51D0C944A060C944A066E
:100060000C944A060C944A060C944A060C944A06D0
:100070000C944A060C944A060C944A060C944A06C0
:100080000C944A060C944A060C944A060C944A06B0
:100090000C944A060C944A060C944A060C944A06A0
:1000A0000C944A060C944A060C944A061B0F3D0F0A
:1000B00028103D0F28107F0FA20F2810F70F0A10ED
:1000C0005C135C138A138A13E61322141316131697
:1000D0003A14131631153115ED15131613160116B2
:1000E000F1A1F1A2F1A3351E1F20212223242526F0
:1000F000272D2E2B141A0815171C180C12132F302D
:1001000082041607090A0B0D0E0F333428E11D1B5C
:100110000619051110363738E531E0E20101012CEE
:1001200001010101E6C02A293A3B3C3D3E3F4041E6
:1001300042434445010101010101B44B524E46477F
:10014000480101010101014A50514F494C0101018F
:10015000A9AAA8014D01010101010101010101014B
:10016000010101010101014C010101010101010134
:10017000010101010101010101010101010101016F
:10018000010101010101010101010101010101015F
:10019000010101010101010101010101010101014F
:1001A0000101010101010101010A0025303136621E
:1001B000003A200025303258000A722F6320303177
:1001C00032333435363738394142434445460A00E4
:1001D0000A002530325800626F756E6365213A203F
:1001E000005B735D004B6579626F617264207374AC
:1001F0006172742E0A0055534220636F6E66696700
:10020000757265642E0A005B575D005B535D005B91
:10021000525D005B445D005B435D000A034700489C
:100220000036003000000012036700650065006BB7
:10023000006800610063006B00000004030904090A
:10024000028D00050100A032090400000103010134
:1002500000092111010001223F0007058103080068
:100260000A09040100010301020009211101000132
:10027000224D000705820308000A09040200010359
:100280000000000921110100012236000705830347
:1002900008000A09040300020300000009211101FB
:1002A0000001222000070584032000010705040344
:1002B00020000109040400010300000009211101CC
:1002C0000001223900070585031000011201100109
:1002D00000000008EDFE6060010001020001050160
:1002E0000906A101050719E029E715002501950870
:1002F000750181020508190129059505750191020D
:10030000950175039101050719002977150025014D
:10031000957875018102C00631FF0974A101097544
:10032000150025FF9520750881020976150025FF27
:10033000952075089102C005010980A1018502166A
:10034000010026B7001A01002AB700751095018137
:1003500000C0050C0901A1018503160100269C02BD
:100360001A01002A9C02751095018100C00501093F
:1003700002A1010901A1000509190129051500259E
:10038000019505750181029501750381010501093A
:100390003009311581257F950275088106093815C8
:1003A00081257F950175088106050C0A38021581A3
:1003B000257F950175088106C0C005010906A101C8
:1003C000050719E029E71500250195087501810247
:1003D0009501750881010508190129059505750123
:1003E00091029501750391010507190029FF150078
:1003F00025FF950675088100C00A00253032582077
:10040000006B6579626F6172645F7265706F7274A0
:100410003A20000A0025303258006B6579626F611E
:1004200072645F7365745F6C65643A200064656C28
:100430005F6B65795F6269743A2063616E2774202F
:1004400064656C3A20253032580A006164645F6B41
:1004500065795F6269743A2063616E277420616414
:10046000643A20253032580A00646F6E652E0A0007
:10047000626F6F746D61676963207363616E3A20A8
:100480002E2E2E2000290A002575002F002575002C
:100490005D280025640020002564002000256400FC
:1004A00020002564007C0025303258006D6F757384
:1004B000656B6579205B62746E7C7820792076208C
:1004C000685D287265702F61636C293A205B006D4E
:1004D0006B5F776865656C5F74696D655F746F5F8E
:1004E0006D6178203D2025640A006D6B5F7768653B
:1004F000656C5F6D61785F7370656564203D202574
:10050000640A006D6B5F74696D655F746F5F6D6128
:1005100078203D2025640A006D6B5F6D61785F7304
:1005200070656564203D2025640A006D6B5F696E0F
:1005300074657276616C203D2025640A006D6B5FE6
:1005400064656C6179203D2025640A006D6B5F77DE
:100550006865656C5F74696D655F746F5F6D617808
:10056000203D2025640A006D6B5F776865656C5FD0
:100570006D61785F7370656564203D2025640A00B5
:100580006D6B5F74696D655F746F5F6D6178203D41
:100590002025640A006D6B5F6D61785F737065651F
:1005A00064203D2025640A006D6B5F696E7465727E
:1005B00076616C203D2025640A006D6B5F64656C7C
:1005C0006179203D2025640A000A00257500363A2D
:1005D00020776865656C5F74696D655F746F5F6DCA
:1005E00061783A20000A00257500353A2077686561
:1005F000656C5F6D61785F73706565643A20000AB1
:1006000000257500343A2074696D655F746F5F6D05
:1006100061783A20000A00257500333A206D617830
:100620005F73706565643A20000A00257500323AF0
:1006300020696E74657276616C286D73293A2000AA
:100640000A00257500313A2064656C6179282A31E9
:10065000306D73293A20000A092D2056616C7565AA
:1006600073202D0A004D3E004D25643E20003F00C2
:100670007365742064656661756C740A00433E207E
:100680000077686572652064656C74613A206375F3
:1006900072736F723D25642C20776865656C3D250B
:1006A000640A53656520687474703A2F2F656E2E46
:1006B00077696B6970656469612E6F72672F7769FE
:1006C0006B692F4D6F7573655F6B6579730A000AEF
:1006D000092D204D6F7573656B6579202D0A455383
:1006E000432F713A09717569740A313A0964656C6E
:1006F0006179282A31306D73290A323A09696E749A
:10070000657276616C286D73290A333A096D6178D8
:100710005F73706565640A343A0974696D655F7466
:100720006F5F6D61780A353A09776865656C5F6D52
:1007300061785F73706565640A363A097768656544
:100740006C5F74696D655F746F5F6D61780A0A70C4
:100750003A097072696E742076616C7565730A640B
:100760003A097365742064656661756C74730A7503
:10077000703A092B310A646F776E3A092D310A708D
:100780006775703A092B31300A7067646F776E3A7B
:10079000092D31300A0A7370656564203D20646557
:1007A0006C7461202A206D61785F737065656420C8
:1007B0002A2028726570656174202F2074696D6528
:1007C0005F746F5F6D6178290A003F004D3E200025
:1007D000433E20004C25640A000A092D20436F6E19
:1007E000736F6C65202D0A4553432F713A0971755B
:1007F00069740A6D3A096D6F7573656B65790A00E6
:100800000A092D204D61676963202D0A643A096445
:10081000656275670A783A096465627567206D617B
:10082000747269780A6B3A096465627567206B6552
:1008300079626F6172640A6D3A0964656275672056
:100840006D6F7573650A763A0976657273696F6EB6
:100850000A733A097374617475730A633A09636FB2
:100860006E736F6C65206D6F64650A302D343A09C4
:100870006C61796572302D34284631302D4634292B
:100880000A506175733A09626F6F746C6F616465C9
:10089000720A653A09656570726F6D0A6E3A094EA3
:1008A0004B524F0A000A002575002E6E6B726F3A8C
:1008B00020000A002575002E737761705F62616306
:1008C0006B736C6173685F6261636B7370616365A6
:1008D0003A20000A002575002E737761705F6772F9
:1008E0006176655F6573633A20000A002575002E06
:1008F0006E6F5F6775693A20000A002575002E73D8
:100900007761705F72616C745F726775693A20001D
:100910000A002575002E737761705F6C616C745FDF
:100920006C6775693A20000A002575002E636170B6
:10093000736C6F636B5F746F5F636F6E74726F6CF9
:100940003A20000A002575002E737761705F636F8F
:100950006E74726F6C5F636170736C6F636B3A205F
:10096000000A0025303258006B65796D61705F6355
:100970006F6E6669672E7261773A20000A002575EE
:10098000002E6D6F7573653A20000A002575002EE4
:100990006B6579626F6172643A20000A0025750008
:1009A0002E6D61747269783A20000A002575002E58
:1009B000656E61626C653A20000A0025303258008D
:1009C00064656275675F636F6E6669672E726177D3
:1009D0003A20000A0025750064656661756C745FD5
:1009E0006C617965723A20003F004E4B524F3A20BD
:1009F0006F66660A004E4B524F3A206F6E0A0074C3
:100A0000696D65725F72656164333228293A202509
:100A100030346C580A006B6579626F6172645F6E86
:100A20006B726F3A2025580A006B6579626F6172AC
:100A3000645F69646C653A2025580A006B657962C9
:100A40006F6172645F70726F746F636F6C3A2025B0
:100A5000580A00686F73745F6B6579626F617264C6
:100A60005F6C65647328293A2025580A000A092D0D
:100A700020537461747573202D0A004743433A2054
:100A8000342E382E32204156522D4C4942433A20C2
:100A9000312E382E30204156525F415243483A2081
:100AA000617672350A004F5054494F4E533A204CEC
:100AB00055464120424F4F544D41474943204D4FE9
:100AC0005553454B45592045585452414B455920A3
:100AD000434F4E534F4C4520434F4D4D414E4420C4
:100AE0004E4B524F20343039360A004255494C445F
:100AF0003A20756E6B6E6F776E202830323A32393D
:100B00003A3232204A756E20313020323031362967
:100B10000A005649443A20307846454544286765DE
:100B2000656B6861636B29205049443A2030783600
:100B3000303630284748363029205645523A203042
:100B400078303030310A00444553433A20742E6DDA
:100B50002E6B2E206B6579626F61726420666972FC
:100B60006D7761726520666F7220474836300A00E3
:100B70000A092D2056657273696F6E202D0A000ACE
:100B80006D6F7573653A206F66660A000A6D6F7542
:100B900073653A206F6E0A000A6B6579626F617245
:100BA000643A206F66660A000A6B6579626F61724B
:100BB000643A206F6E0A000A6D61747269783A2097
:100BC0006F66660A000A6D61747269783A206F6E0A
:100BD0000A000A64656275673A206F6E0A000A644B
:100BE000656275673A206F66660A000A0A626F6F6F
:100BF000746C6F616465722E2E2E2000433E2000BF
:100C00006565636F6E6669673A0A000011241FBE4E
:100C1000CFEFDAE0DEBFCDBF04B603FE24C0809183
:100C2000E6019091E701A091E801B091E9018730D8
:100C3000904BA740B04BB9F41092E6011092E70137
:100C40001092E8011092E90114BE84B7877F84BF37
:100C500088E10FB6F89480936000109260000FBE98
:100C6000E0E0F8E3099511E0A0E0B1E0E2EBF4E5A3
:100C700002C005900D92A833B107D9F711E0A8E39F
:100C8000B1E001C01D92A63EB107E1F70E941A0B28
:100C90000C94572A0C940000FF93EF93E0913801D5
:100CA000F0913901309709F00995EF91FF9108957E
:100CB000FC018591803011F0EFDFFBCF0895FF2715
:100CC000E0E230E247FF0CC0419597FF09C0EDE23A
:100CD0006095709580959095611D711D811D911D88
:100CE00027FF02C0219530E350E2AA27660F771F45
:100CF000881F991FAA1FA41710F0A41B63955A956B
:100D0000A9F7AA3008F0A95FA05DAF93F39561152C
:100D100071058105910541F7ED3211F4EF93F395DB
:100D2000F21718F43F93F395FBCF8F91B5DFFA9547
:100D3000E1F70895E991F9918591803021F08532AC
:100D400019F0AADFF9CF089520E0E89455915532C3
:100D5000C1F3503311F4689455915A3348F4505309
:100D600090F3220F022E220F220F200D250FF4CF19
:100D70000EF4219589919991533619F3533729F13E
:100D8000533559F1BC0188279927E8945C3621F442
:100D90008991999168945591543639F446EF7EF0D3
:100DA00077FF0DC08FEF9FEF0AC055374AE039F04B
:100DB000583540E121F0523642E009F00895FF93A2
:100DC000EF937DDFEF91FF91B7CFFF93EF93FC019E
:100DD00081918030B9F360DFFBCFFF93EF9368DF41
:100DE000F1CFDF93CF93CDB7DEB72596A3DFCF91B9
:100DF000DF9108959DE0799FF001112491E4899F8E
:100E0000E00DF11D1124E60FF11DEA51FF4F849111
:100E10000895E82FF0E0EE0FFF1FE05AF0408591B3
:100E20009491089580B380BB81B381BB8DB18DB99E
:100E30008EB18EB98AB1807E8AB98BB1807E8BB932
:100E400087B187B988B188B984B184B985B185B9CA
:100E500008950E94120780B38F7080BB81B3806FAA
:100E600081BB6E98769A57985F9A3E98469A84B15D
:100E7000817884B985B18E6785B9E4E4F1E0AAE3AD
:100E8000B1E0119211921D921D9281E0EE34F807AB
:100E9000C1F70895AF92BF92CF92EF92FF920F9356
:100EA0001F93CF93DF93CAE3D1E010E001E0E5E0C8
:100EB000CE2EF2EDEF2EF1E0FF2E123071F018F48D
:100EC000113041F004C0133059F0143061F0539ADE
:100ED0005B980BC0529A5A9808C0519A599805C00D
:100EE000509A589802C0549A5C9880EA8A95F1F713
:100EF00086B18295869586958370802780FBAA248B
:100F0000A0F8B12C89B1992787FD9095809590958F
:100F10008827990F881F9927880F991F8A299B294D
:100F2000669B03C040E050E002C044E050E0842BE8
:100F3000952B1C9B03C040E050E002C048E050E00D
:100F4000482B592B1D9B03C020E030E002C020E15C
:100F500030E0242B352B1E9B03C0E0E0F0E002C004
:100F6000E0E2F0E02E2B3F2B1A9B03C060E070E024
:100F700002C060E470E0262B372B1B9B03C040E0CF
:100F800050E002C040E850E0242B352B199B03C0F1
:100F900040E050E002C040E051E0242B352B8FB1FF
:100FA000992787FD9095809590958827990F881FA0
:100FB0009927982F8827990F282B392B7E9B03C0C0
:100FC00080E090E002C080E094E0282B392B7D9BEC
:100FD00003C080E090E002C080E098E0282B392B2D
:100FE0007C9B03C080E090E002C080E090E1282B71
:100FF000392B888199818217930741F1398328839E
:1010000080910001882301F18091C70180FF04C015
:1010100087ED91E00E9458068091C70180FF0CC0C7
:10102000809100011F928F93FF92EF920E94F10630
:101030000F900F900F900F908091C70180FF04C018
:1010400080ED91E00E945806C09200010E941207B4
:101050001F5F2296153009F030CF80910001882360
:10106000C1F0815080930001882339F08FE99FE01F
:101070000197F1F700C000000CC0A4E4B1E0EAE37E
:10108000F1E0819191918D939D9391E0E434F90782
:10109000C1F781E0DF91CF911F910F91FF90EF9009
:1010A000CF90BF90AF900895E82FF0E0EE0FFF1FB4
:1010B000EC5BFE4F808191810895CF92DF92EF9299
:1010C000FF920F931F93CF93DF9389EB91E00E94E0
:1010D0005806C4E4EC2EC1E0FC2EC0E0D0E014EBD6
:1010E000C12E11E0D12E0BEA11E0DF93CF93DF92F6
:1010F000CF920E94F10681EB91E00E945806F70121
:10110000819191917F010E94D91C9F938F931F938E
:101110000F930E94F10689EA91E00E9458062196F9
:101120008DB79EB708960FB6F8949EBF0FBE8DBFC1
:10113000C530D105D1F6DF91CF911F910F91FF906E
:10114000EF90DF90CF900895089580916101089508
:101150009FB7F894109250019FBF9091DC0194309A
:1011600009F058C09091E9009F702091EC0020FF99
:1011700002C020E801C020E0292B94E09093E90010
:101180009091EB0090FF43C09091EE0097FF3FC01D
:1011900090914E01992321F09091E80095FF37C07E
:1011A00010924E0196E03091E80035FD15C0309167
:1011B000DC01343061F53091EB0035FD28C09150F1
:1011C00021F481E080934E0122C0EFE9FFE03197E6
:1011D000F1F700C00000E7CF8093F1008091E800B4
:1011E00085FD0AC08091E80080FFFCCF8091E80077
:1011F0008E778093E80006C08FB7F89491E09093C3
:1012000050018FBF2F702093E90080E008952F7068
:101210002093E9008FEF0895CF93DF9300D01F92C2
:10122000CDB7DEB72091DC01243019F523E0298306
:101230009B838A832093E9008FEF9091E80081508F
:1012400095FD06C095ED9A95F1F700008111F5CF57
:101250008091E80085FF0DC040E050E063E070E061
:10126000CE0101960E94D70B8091E8008E77809383
:10127000E8000F900F900F90DF91CF910895CF93DA
:10128000DF9300D01F92CDB7DEB72091DC01243070
:1012900021F522E029839B838A8383E08093E90000
:1012A0008FEF9091E800815095FD06C095ED9A95DD
:1012B000F1F700008111F5CF8091E80085FF0DC0A6
:1012C00040E050E063E070E0CE0101960E94D70B51
:1012D0008091E8008E778093E8000F900F900F9038
:1012E000DF91CF9108952091DC012430F1F422E0C8
:1012F0002093E9002FEF3091E800215035FD06C022
:1013000035ED3A95F1F700002111F5CF2091E80075
:1013100025FF0BC040E050E065E070E00E94D70B75
:101320008091E8008E778093E8000895CF93DF9353
:10133000EC018091DC01843009F047C080910B0101
:101340008823E1F080910C018823C1F085E080932F
:10135000E9008FEF9091E800815095FD06C095E17E
:101360009A95F1F700008111F5CF8091E80085FF93
:101370002CC040E050E060E170E017C081E0809355
:10138000E9008FEF9091E800815095FD06C095ED42
:101390009A95F1F700008111F5CF8091E80085FF63
:1013A00014C040E050E068E070E0CE010E94D70B2E
:1013B0008091E8008E778093E80080E1FE01A1E54E
:1013C000B1E001900D928A95E1F7DF91CF910895F8
:1013D00087E192E00E9458068091DB01811109C0EB
:1013E0000E94690D0E94C60D8091E2008460809386
:1013F000E200089583E192E00E9458061092DB011A
:1014000008958FE092E00C9458068BE092E00C94E3
:10141000580687E092E00E9458060C94301D809197
:101420004F018F5F80934F0162E30E94EC2991117D
:1014300035C010924F0180915001882379F180913D
:10144000DC01843049F58091E9008F709091EC00C7
:1014500090FF02C090E801C090E0982B84E0809358
:10146000E9008091EB0080FF14C08091EE0087FFBF
:1014700010C08091E80085FF03C01092F100F9CF01
:101480008091E80080FF05C08091E8008E7780930E
:10149000E8009F709093E90010925001089542E097
:1014A00061EC81E00E94E30C42E061EC82E00E948A
:1014B000E30C42E061EC83E00E94E30C42E261EC69
:1014C00084E00E94E30C42E161EC85E00C94E30CC3
:1014D0008091DE01833009F455C030F4813071F021
:1014E000823009F48EC008958A3009F47AC08B30B6
:1014F00009F460C0893009F09CC020C08091DD01F2
:10150000813A09F096C08091E800877F8093E800D7
:101510008091E1019091E201892B21F060E080E06F
:1015200090E003C060E181E591E070E00E94200C52
:101530008091E8008B778093E80008958091DD0129
:10154000813209F076C08091E1019091E20100972B
:1015500019F0049709F06DC08091E800877F8093AF
:10156000E8008091E80082FD05C08091DC018111D6
:10157000F8CF5FC08091F100809361018091E80015
:101580008B7753C08091DD01813A09F052C0809180
:10159000E1019091E201892B09F04BC08091E800B4
:1015A000877F8093E8008091E80080FFFCCF8091E6
:1015B0000B0136C08091DD018132D9F58091E101C6
:1015C0009091E201892BA9F58091E800877F8093B3
:1015D000E8000E94180D8091DF0180930B010C94AC
:1015E00034168091DD01813221F58091E800877FFA
:1015F0008093E8000E94180D8091E00180936201C1
:1016000008958091DD01813AA1F48091E800877FFF
:101610008093E8008091E80080FFFCCF8091620118
:101620008093F1008091E8008E778093E8000C941D
:10163000180D089584B7877F84BF88E10FB6F894AA
:1016400080936000109260000FBE90E080E80FB6BB
:10165000F89480936100909361000FBE0E94CE10B9
:101660000E94690D0E94C60D8091E2008460809303
:10167000E20088EA98E00E94C21C78948091DC0124
:101680008430E1F786EF91E00E9458060E94D01066
:1016900081E091E00E94401085EE91E00E945806A2
:1016A0008091DC01853089F481EE91E00E9458063A
:1016B0000E94F31C8091DA01882391F30E941B1D84
:1016C000882371F30E94C10BEBCF0E94FE10E8CF7C
:1016D000292F332723303105A9F06CF4213031054F
:1016E00009F442C02230310509F043C08DE890E092
:1016F0002FE332E042C021323105C9F022323105F8
:1017000019F137C099278130910541F08230910558
:1017100041F0892B71F5EBE3F2E005C0E7E2F2E07E
:1017200002C0EBE1F2E0849190E09F0126C06530B9
:1017300000F5E62FF0E0EE0FFF1FEC5DFE4F20817D
:10174000318189E090E019C0653098F4E62FF0E02F
:10175000DF01AA0FBB1FA65EBE4F2D913C91EB5E31
:10176000FE4F808190E009C082E190E02CEC32E0F5
:1017700004C080E090E020E030E0FA013183208373
:10178000089580E189BD82E189BD09B400FEFDCFE5
:101790008091D8008F7D8093D8008091E000826096
:1017A0008093E0008091E00081FDFCCF0895CF920E
:1017B000DF92EF92FF920F931F93CF93DF937C0101
:1017C0008B01EA010E94390D811131C0209731F05F
:1017D00088819981081B190BE80EF91EC12CD12CA8
:1017E0000115110519F18091E80085FD14C0809163
:1017F000E8008E778093E800209741F088819981F6
:101800008C0D9D1D9983888385E011C00E94390D40
:10181000882331F30CC0F70181917F018093F1009F
:1018200001501109FFEFCF1ADF0ADACF80E0DF9114
:10183000CF911F910F91FF90EF90DF90CF9008957F
:101840002091E3013091E4012617370748F0611534
:10185000710539F42091E8002E772093E80001C04B
:10186000B901FC0120E061157105B9F18091DC013D
:10187000882309F440C0853009F43FC08091E80016
:1018800083FD3DC08091E80082FF06C08091E800A2
:1018900082FF26C080E008958091E80080FFE3CFBA
:1018A0002091F3008091F20090E0922B6115710578
:1018B00051F08830910538F421912093F100615066
:1018C00071090196F3CF21E0089709F020E080919B
:1018D000E8008E778093E800C6CF2111C7CFD6CF1E
:1018E0008091DC01882339F0853039F08091E8005F
:1018F00083FFCCCF04C082E0089583E0089581E0A7
:1019000008952091E3013091E4012617370748F04C
:101910006115710539F42091E8002E772093E800D5
:1019200001C0B901FC0120E061157105C1F1809190
:10193000DC01882309F441C0853009F440C080915E
:10194000E80083FD3EC08091E80082FF06C08091E0
:10195000E80082FF27C080E008958091E80080FFC2
:10196000E3CF2091F3008091F20090E0922B61157B
:10197000710559F08830910540F424912093F100CD
:101980003196615071090196F2CF21E0089709F074
:1019900020E08091E8008E778093E800C5CF211188
:1019A000C6CFD5CF8091DC01882339F0853039F05E
:1019B0008091E80083FFCBCF04C082E0089583E0EC
:1019C000089581E00895982F973058F59093E90095
:1019D000981739F07091EC002091ED005091F000D3
:1019E00003C0242F762F50E021FF19C03091EB0067
:1019F0003E7F3093EB003091ED003D7F3093ED0062
:101A00003091EB0031603093EB007093EC00209349
:101A1000ED005093F0002091EE0027FF07C09F5F7C
:101A2000D3CF8F708093E90081E0089580E008951E
:101A30008091DD0187FD05C08091E80080FF0EC028
:101A400012C08091E80082FD05C08091DC01811107
:101A5000F8CF08958091E8008B7708C08091DC0171
:101A60008111EACF08958091E8008E778093E80095
:101A700008958091E4009091E50045E62091EC0006
:101A800020FF21C02091E80020FD21C02091DC0131
:101A9000222389F0253089F02091EB0025FD0FC02D
:101AA0002091E4003091E5002817390739F34150BF
:101AB00041F0C901E3CF82E0089583E0089581E019
:101AC000089584E008952091E80022FFDFCF80E0B0
:101AD00008950E94D70D0E94DF0DE0EEF0E08081B6
:101AE00081608083E8EDF0E080818F77808319BC8E
:101AF000A7EDB0E08C918E7F8C9380818F7E808368
:101B00001092DB0108950F931F93CF93DF930E94F0
:101B1000D70D0E94DF0DC8EDD0E088818F778883D4
:101B200088818068888388818F7D888319BC109222
:101B3000DC011092D8011092DA011092D90100EE66
:101B400010E0F80180818B7F8083888181608883A9
:101B500042E060E080E00E94E30CE1EEF0E0808192
:101B60008E7F8083E2EEF0E08081816080838081DF
:101B700088608083F80180818E7F80838881806186
:101B80008883DF91CF911F910F910895E8EDF0E0E8
:101B900080818F7E8083E7EDF0E0808181608083AB
:101BA00084E082BF81E08093DB010C94830DE8ED3B
:101BB000F0E080818E7F80831092E2000895109281
:101BC000DA001092E10008951F920F920FB60F9263
:101BD00011242F933F934F935F936F937F938F9332
:101BE0009F93AF93BF93EF93FF938091E10082FFA8
:101BF0000BC08091E20082FF07C08091E1008B7FE3
:101C00008093E1000E940F0A8091DA0080FF1FC0DC
:101C10008091D80080FF1BC08091DA008E7F809376
:101C2000DA008091D90080FF0DC080E189BD82E19A
:101C300089BD09B400FEFDCF81E08093DC010E94E4
:101C4000E80905C019BC1092DC010E94FA098091D4
:101C5000E10080FF19C08091E20080FF15C08091F3
:101C6000E2008E7F8093E2008091E20080618093A9
:101C7000E2008091D80080628093D80019BC85E092
:101C80008093DC010E94050A8091E10084FF30C04E
:101C90008091E20084FF2CC080E189BD82E189BD92
:101CA00009B400FEFDCF8091D8008F7D8093D800CD
:101CB0008091E1008F7E8093E1008091E2008F7E31
:101CC0008093E2008091E20081608093E200809145
:101CD000D801882311F084E007C08091E30087FFDA
:101CE00002C083E001C081E08093DC010E94090A08
:101CF0008091E10083FF29C08091E20083FF25C02D
:101D00008091E100877F8093E10082E08093DC0195
:101D10001092D8018091E1008E7F8093E100809144
:101D2000E2008E7F8093E2008091E20080618093E8
:101D3000E20042E060E080E00E94E30C8091F0006D
:101D400088608093F0000E94010AFF91EF91BF919B
:101D5000AF919F918F917F916F915F914F913F9143
:101D60002F910F900FBE0F901F9018951F920F92FA
:101D70000FB60F9211242F933F934F935F936F935E
:101D80007F938F939F93AF93BF93CF93EF93FF93E3
:101D9000C091E900CF708091EC001092E900809131
:101DA000F000877F8093F00078940E94F20E1092EA
:101DB000E9008091F00088608093F000C093E90012
:101DC000FF91EF91CF91BF91AF919F918F917F91B3
:101DD0006F915F914F913F912F910F900FBE0F9098
:101DE0001F9018951F93CF93DF93CDB7DEB7AA97B7
:101DF0000FB6F894DEBF0FBECDBFEDEDF1E08091E0
:101E0000F100819321E0E53EF207C9F70E94680ADC
:101E10008091E80083FF1CC12091DD013091DE013B
:101E2000832F90E08A30910508F012C1FC01EA5A34
:101E3000FF4F0C940C2A203881F0223809F008C199
:101E40008091E1018F708093E9008091EB0085FB28
:101E5000882780F91092E90006C08091D9019091FD
:101E6000DA01911182609091E800977F9093E800E9
:101E70008093F1001092F100C5C0822F8D7F09F090
:101E8000E7C0222319F0223061F0E2C08091DF0127
:101E9000813009F0DDC0333009F080E08093DA0151
:101EA00028C08091DF01811124C02091E1012F70B1
:101EB00009F4CEC02093E9008091EB0080FF19C0A7
:101EC0008091EB00333011F4806211C08061809307
:101ED000EB0081E090E0022E01C0880F0A94EAF73F
:101EE0008093EA001092EA008091EB008860809372
:101EF000EB001092E9008091E800877F86C02111F5
:101F0000A7C01091DF011F778091E3008078812BBB
:101F10008093E3008091E800877F8093E8000E942F
:101F2000180D8091E80080FFFCCF8091E30080686D
:101F30008093E300112311F083E001C082E08093DD
:101F4000DC0186C02058223008F082C08091DF0179
:101F50009091E0018C3D23E0920779F583E08A833C
:101F60008AE289834FB7F894DE01139620E03EE0C1
:101F700051E2E32FF0E050935700E49120FF03C0BB
:101F8000E295EF703F5FEF708E2F90E0EA3010F037
:101F9000C79601C0C0968D939D932F5F243149F75A
:101FA0004FBF8091E800877F8093E8006AE270E08D
:101FB000CE0101960E94200C14C0AE014F5F5F4F0E
:101FC0006091E1010E94680B009709F441C02091E3
:101FD000E800277F2093E800BC0189819A810E9454
:101FE000810C8091E8008B778093E80031C0203825
:101FF00079F58091E800877F8093E8008091D8018F
:102000008093F1008091E8008E778093E8000E9431
:10201000180D1EC021111CC09091DF019230C0F438
:102020008091E800877F8093E8009093D8010E9418
:10203000180D8091D801811104C08091E30087FFC1
:1020400002C084E001C081E08093DC010E944F0A5D
:102050008091E80083FF0AC08091E800877F809329
:10206000E8008091EB0080628093EB00AA960FB6A7
:10207000F894DEBF0FBECDBFDF91CF911F910895C1
:1020800090936801809367010895E0916701F09152
:102090006801309721F00190F081E02D099480E0F3
:1020A0000895FF920F931F93CF93DF938C01E091DC
:1020B0006701F0916801309799F10280F381E02D7A
:1020C00009958091C70182FF2BC080FF04C081E089
:1020D00094E00E945806E80180E1F82E0BEF13E02F
:1020E0008091C70180FF0BC088811F928F931F933F
:1020F0000F930E94F1060F900F900F900F90FA949B
:102100002196F110EDCF8091C70180FF09C089EFC2
:1021100093E0DF91CF911F910F91FF900C9458069F
:10212000DF91CF911F910F91FF900895E09167018A
:10213000F0916801309721F00480F581E02D099439
:10214000089520916501309166018217930771F01F
:102150009093660180936501E0916701F0916801B9
:10216000309721F00680F781E02D099408952091A1
:102170006301309164018217930771F090936401B9
:1021800080936301E0916701F0916801309721F03D
:102190000084F185E02D0994089508950C94CD10E4
:1021A0000E945B1D0E9429070C947C1FCF93C82FAF
:1021B0008091C70182FF1EC080FF04C08AE194E0C5
:1021C0000E9458068091C70180FF0CC01F92CF93D8
:1021D00025E134E03F932F930E94F1060F900F907A
:1021E0000F900F908091C70180FF04C083E194E0BD
:1021F0000E9458068C2FCF910C94A4085F926F9286
:102200007F928F929F92AF92BF92CF92DF92EF9286
:10221000FF920F931F93CF93DF93CDB7DEB72A972B
:102220000FB6F894DEBF0FBECDBF0E944A079AE6F4
:10223000C92E91E0D92E00E010E0AA24A394B12C7D
:10224000502E802F0E9454083C01F601E190F1903D
:102250006F01E826F926E114F104B1F40F5F1F4F76
:102260000530110569F78FEF89838A831B820E94ED
:10227000641D8160782F9D838C8349815A816B8195
:102280008D810E94B7113AC08091C70181FD0E94E3
:102290005D0820E030E04501022E02C0880C991C48
:1022A0000A94E2F7C4018E219F21892B09F12E8324
:1022B0005F826820792081E0672809F480E08887C0
:1022C0000E94641D8160782F9A8789874E815F8183
:1022D00068858A850E94B711F801EE0FFF1FE65945
:1022E000FE4F80819181882599259183808306C046
:1022F0002F5F3F4F2D30310571F6B0CF0E94012383
:10230000109169010E9445101817D9F00E944510DC
:10231000809369012A960FB6F894DEBF0FBECDBF39
:10232000DF91CF911F910F91FF90EF90DF90CF90B1
:10233000BF90AF909F908F907F906F905F900C9424
:10234000D6102A960FB6F894DEBF0FBECDBFDF9130
:10235000CF911F910F91FF90EF90DF90CF90BF90A2
:10236000AF909F908F907F906F905F900895CF93E4
:10237000DF93CDB7DEB72B970FB6F894DEBF0FBE55
:10238000CDBF4F83588769877A878B87DE01119687
:1023900086E0FD0111928A95E9F785E0FE01379606
:1023A00001900D928A95E1F749815A816B817C8178
:1023B0008D819E810E9400192B960FB6F894DEBF86
:1023C0000FBECDBFDF91CF910895CF93C82F882343
:1023D00009F4CCC0823859F40E94451081FDC6C072
:1023E00089E30E94BA1B0E949C1C89E30CC08338BD
:1023F00079F40E94451080FDB9C083E50E94BA1BA4
:102400000E949C1C83E50E940B1CCF910C949C1C89
:10241000843859F40E94451082FDA8C087E40E94C8
:10242000BA1B0E949C1C87E4EECF8CEF8C0F813A84
:1024300048F48C2F0E947827811198C08C2F0E941D
:10244000BA1BE3CF80E28C0F883048F4C77081E07C
:1024500001C0880FCA95EAF70E94601CD6CF8BE5B1
:102460008C0F833078F4C53A29F0C63A31F482E80B
:1024700090E005C081E890E002C083E890E0CF9151
:102480000C94A11088E58C0F853108F06FC0C83A14
:1024900061F1C93A69F1CA3A71F1CB3A79F1CC3AB2
:1024A00081F1CD3A89F1CE3A91F1CF3A99F1C13B20
:1024B000A1F1C03BA9F1C23BB1F1C33BB9F1C43BAF
:1024C000C1F1C53BC9F1C63BD1F1C73BD9F1C83B0E
:1024D000E1F1C93BE9F1CA3BF1F1CB3BF9F1CC3B6E
:1024E00009F03FC08AE292E03EC082EE90E03BC03D
:1024F00089EE90E038C08AEE90E035C085EB90E040
:1025000032C086EB90E02FC083EB90E02CC084EBD0
:1025100090E029C087EB90E026C08CEC90E023C0CF
:102520008DEC90E020C083E891E01DC08AE891E046
:102530001AC082E991E017C084E991E014C081E2F9
:1025400092E011C083E292E00EC084E292E00BC000
:1025500085E292E008C086E292E005C087E292E060
:1025600002C080E090E0CF910C94B710CF91089515
:10257000882309F44BC0823859F40E94451081FF2A
:1025800045C089E30E94BA1B0E949C1C89E30CC0D1
:10259000833871F40E94451080FF38C083E50E94A3
:1025A000BA1B0E949C1C83E50E940B1C0C949C1C73
:1025B000843859F40E94451082FF28C087E40E94A5
:1025C000BA1B0E949C1C87E4EFCF9CEF980F913AB6
:1025D00058F390E2980F983050F4877091E001C062
:1025E000990F8A95EAF7892F0E94661CDFCF9BE539
:1025F000980F933020F480E090E00C94A110885A5A
:10260000853120F480E090E00C94B7100895882381
:1026100021F00E94601C0C949C1C0895882321F0DA
:102620000E94661C0C949C1C0895CF92DF92EF923E
:10263000FF920F931F93CF93DF93CDB7DEB7289709
:102640000FB6F894DEBF0FBECDBF8C0185E0F80158
:10265000DE01119601900D928A95E1F7F801408113
:102660003181F280258122952F7083819481892B7D
:1026700031F03F3F31F481E04F3F19F403C081E076
:1026800001C080E080FDCFC249833A8389819A816D
:102690002F830E94781B9E8388870E94771B0E944D
:1026A0004A1A4E81E42FE295EF70F0E0E05AFF4FB6
:1026B0002F8168850C940C2A842F807F142F1F7023
:1026C000882311F01295107FFF2059F0112309F48F
:1026D0005FC2812F68870E94731C0E949C1C6885C2
:1026E00057C2862F0E94B812112309F49CC2812F71
:1026F0000E94791C28960FB6F894DEBF0FBECDBF9E
:10270000DF91CF911F910F91FF90EF90DF90CF90CD
:102710000C949C1C842F807F942F9F70E92E803214
:1027200019F0E29480EFE822662319F0613001F19C
:1027300029C0FF20A9F08E2D222349F1213039F53F
:1027400028960FB6F894DEBF0FBECDBFDF91CF91B4
:102750001F910F91FF90EF90DF90CF900C94831C0E
:10276000222319F0213009F45EC20E94861C2CC07D
:10277000FF20E9F0263008F056C20E945D1C8E2131
:1027800029F022C0FF20F1F0211115C08E2D2896CE
:102790000FB6F894DEBF0FBECDBFDF91CF911F9172
:1027A0000F91FF90EF90DF90CF900C94071325309E
:1027B00008F039C209C0F801858180FFE9C18F7036
:1027C0008583E4CF2111F8C18E2D66C1242F269573
:1027D0002695237030E02115310521F02130310597
:1027E000C9F021C2FF2021F0862F942F937002C0E0
:1027F00080E090E028960FB6F894DEBF0FBECDBF04
:10280000DF91CF911F910F91FF90EF90DF90CF90CC
:102810000C94A110FF2021F0862F942F937002C0FA
:1028200080E090E028960FB6F894DEBF0FBECDBFD3
:10283000DF91CF911F910F91FF90EF90DF90CF909C
:102840000C94B710862FFF2019F00E94872102C038
:102850000E94EF2128960FB6F894DEBF0FBECDBFC1
:10286000DF91CF911F910F91FF90EF90DF90CF906C
:102870000C947422842F837009F076C0F110D3C1B8
:10288000262F229526952770220F220F862F8F70D4
:10289000C82ED12CE12CF12C022E04C0CC0CDD1C56
:1028A000EE1CFF1C0A94D2F764FF10C06FE070E0CA
:1028B00080E090E004C0660F771F881F991F2A955B
:1028C000D2F7609570958095909503C060E070E0B8
:1028D000CB01242F269526952370422F50E04230BD
:1028E0005105D1F04330510559F16C297D298E29CC
:1028F0009F294130510541F128960FB6F894DEBF6B
:102900000FBECDBFDF91CF911F910F91FF90EF9040
:10291000DF90CF900C946F1A6C297D298E299F2906
:1029200028960FB6F894DEBF0FBECDBFDF91CF91D2
:102930001F910F91FF90EF90DF90CF900C94891A28
:102940000E946F1AC701B60128960FB6F894DEBF31
:102950000FBECDBFDF91CF911F910F91FF90EF90F0
:10296000DF90CF900C94551AFF2019F0842F8170BE
:1029700001C08695882309F456C1262F22952695F5
:102980002770220F220F862F8F70C82ED12CE12C9A
:10299000F12C022E04C0CC0CDD1CEE1CFF1C0A9492
:1029A000D2F764FF10C06FE070E080E090E004C0F8
:1029B000660F771F881F991F2A95D2F7609570952B
:1029C0008095909503C060E070E0CB01242F2695A0
:1029D00026952370422F50E042305105D1F043300C
:1029E000510559F16C297D298E299F2941305105C6
:1029F00041F128960FB6F894DEBF0FBECDBFDF9130
:102A0000CF911F910F91FF90EF90DF90CF900C949A
:102A1000431B6C297D298E299F2928960FB6F8948F
:102A2000DEBF0FBECDBFDF91CF911F910F91FF9001
:102A3000EF90DF90CF900C945D1B0E94431BC70169
:102A4000B60128960FB6F894DEBF0FBECDBFDF915A
:102A5000CF911F910F91FF90EF90DF90CF900C944A
:102A6000291B603F49F118F4603E48F48CC0623F76
:102A700009F451C0E0F1633F09F461C084C0162F2E
:102A80001F70842F8F71FF2021F00E94C21A812FA6
:102A90007ECE0E94E31A812F28960FB6F894DEBFEF
:102AA0000FBECDBFDF91CF911F910F91FF90EF909F
:102AB000DF90CF900C940E13FF20A9F0253008F082
:102AC000B2C0842F8F7128960FB6F894DEBF0FBE68
:102AD000CDBFDF91CF911F910F91FF90EF90DF90CD
:102AE000CF900C94081B263008F09DC0EACFFF2041
:102AF000A1F0842F8F7128960FB6F894DEBF0FBE19
:102B0000CDBFDF91CF911F910F91FF90EF90DF909C
:102B1000CF900C94C21AFF2061F3842F8F712896F6
:102B20000FB6F894DEBF0FBECDBFDF91CF911F91DE
:102B30000F91FF90EF90DF90CF900C94E31AFF205D
:102B400091F0842F8F7128960FB6F894DEBF0FBED8
:102B5000CDBFDF91CF911F910F91FF90EF90DF904C
:102B6000CF900C94AD1A28960FB6F894DEBF0FBE26
:102B7000CDBFDF91CF911F910F91FF90EF90DF902C
:102B8000CF900C94A31AFF20A1F0222309F4B1CF17
:102B9000862F28960FB6F894DEBF0FBECDBFDF910B
:102BA000CF911F910F91FF90EF90DF90CF900C94F9
:102BB000E511222309F4B1CF862F28960FB6F89499
:102BC000DEBF0FBECDBFDF91CF911F910F91FF9060
:102BD000EF90DF90CF900C94B8124F70C8010E9414
:102BE0001E1F28960FB6F894DEBF0FBECDBFDF9133
:102BF000CF911F910F91FF90EF90DF90CF900C94A9
:102C0000AD194F70C80128960FB6F894DEBF0FBEFD
:102C1000CDBFDF91CF911F910F91FF90EF90DF908B
:102C2000CF900C94211F28960FB6F894DEBF0FBEEC
:102C3000CDBFDF91CF911F910F91FF90EF90DF906B
:102C4000CF9008950E94801C0E944F1C0E949C1CE3
:102C50000E94A2230E94742280E090E00E94A110B2
:102C600080E090E00C94B7100E94701C0C94221627
:102C70000E94781B292F22952F7030E02C303105CF
:102C80004CF42A3031056CF42250310922303105E0
:102C900090F407C02C30310551F02F30310539F058
:102CA0000AC0803E10F0803F31F481E0089593FB2C
:102CB000882780F9089580E00895CF93DF9300D0AE
:102CC00000D01F92CDB7DEB70F900F900F900F90EE
:102CD0000F90DF91CF910895CF93DF9300D000D074
:102CE00000D0CDB7DEB726960FB6F894DEBF0FBE84
:102CF000CDBFDF91CF9108951F93CF93DF93C09104
:102D0000740116E080917501C81799F0D0E01C9FFE
:102D1000F0011D9FF00D1124EA58FE4F40815181B2
:102D200062817381848195810E946C162196C7709F
:102D3000E9CFDF91CF911F9108954091A601509165
:102D4000A7016091A8017091A9018091AA019091B9
:102D5000AB010C946C16CF938091AB0182958F7070
:102D600009F05FC08091A801882309F45AC020911E
:102D70007401A09175016091A6017091A7018091E5
:102D8000A9019091AA0131E06F3F09F030E0B32F23
:102D9000C6E02A1709F445C0009721F07F3F21F4CF
:102DA0004B2F03C041E001C040E030E040FD35C0A2
:102DB000C29FF001C39FF00D1124EA58FE4F4181DC
:102DC00074132BC04081641328C04281411125C077
:102DD000438154814817590710F441505109481B49
:102DE000590B483C5105C8F48091AB018F7080614C
:102DF0008093AB0186E0829FF001839FF00D112448
:102E0000E558FE4F80818F708061808386EA91E073
:102E10000E941513CF910C947C162F5F3F4F2770A3
:102E2000B8CFCF910895CF92DF92EF92FF920F9398
:102E30001F93CF93DF93CDB7DEB762970FB6F894A9
:102E4000DEBF0FBECDBF8C0185E0F801DE011D960F
:102E500001900D928A95E1F7D8014C9111965C9101
:102E6000119712966C9112971396ED90FC9014970F
:102E70007091A601E091A7012091A9013091AA01CA
:102E80002115310531F0EF3F31F481E07F3F19F436
:102E900003C081E001C080E0B82FB170CB2E80FD6F
:102EA0006CC1D090A801DD2009F4F5C0F091AB0110
:102EB000E216F30638F0C701821B930B883C91059C
:102EC00048F09BC0209530952E0D3F1D283C3105C4
:102ED00008F093C08F2F807F09F052C0E51314C013
:102EE000741312C0D62E61110FC0FF70F061F09301
:102EF000AB010E949D1686EA91E00E941513809115
:102F0000AB01F80185836CC1EF2831F05F3F31F4EC
:102F100081E04F3F19F403C081E001C080E080FDF3
:102F200003C081E0862701C080E0F82FF170FF2EFA
:102F300080FF1CC0809174012091750136E08217DA
:102F400009F428C190E0389FF001399FF00D112459
:102F5000EA58FE4F7181571306C07081471303C0B2
:102F60007281671303C001968770E9CFD62E66235E
:102F700009F436C18091AB0181608093AB0153C0ED
:102F8000E51308C0741306C0611104C0D80115967A
:102F9000FC93AEC04D875E878D859E856A8B0E94AF
:102FA00038166A89882329F1D62E662311F12091DB
:102FB000AB01822F82958F7090E002970CF460C075
:102FC0008091A6019091A70198878F831986FB862F
:102FD000EA862C87CE01079651C0E51731F14D875F
:102FE0005E878D859E856A8B0E9438166A8981115D
:102FF0002EC0C8010E941513A4C08F2F807F69F7CF
:103000007E2DF98AE88A89890E945D1686EA91E018
:103010000E941513E6EAF1E086E0DF011D928A9531
:10302000E9F70E949D16D12CDBC07413D8CF611133
:10303000D6CFD8011596FC93C8010E941513E6EA75
:10304000F1E086E0DF011D928A95E9F7C9C0D62E2E
:10305000662379F22091AB01822F82958F7090E0E8
:10306000029774F08091A6019091A7019A838983B9
:103070001B82FD82EC822E83CE0101960E941513E5
:1030800086E0F801A6EAB1E001900D928A95E1F799
:103090000E94AB166FC0E216F30628F0C701821B30
:1030A000930B9C0104C0209530952E0D3F1D283CAC
:1030B000310508F052C0D62E662309F49ACFE513E5
:1030C0002CC074132AC08091AB0180FD1DC0982FC5
:1030D00092959F70C9F0D80115968C9315979F30E3
:1030E00039F09F5F9295907F8F70892B15968C9306
:1030F000C8010E94151386E0F801A6EAB1E001902C
:103100000D928A95E1F736C086E0F801A6EAB1E0B3
:1031100001900D928A95E1F763C04D875E878D859A
:103120009E850E943816882379F086E0F801A6EA89
:10313000B1E001900D928A95E1F70E94AB160E94D2
:103140009D16DD24D3944CC08091AB0181608093A7
:10315000AB01C8010E94151343C07E2DF98AE88A8D
:1031600089890E945D16E6EAF1E086E0DF011D92A2
:103170008A95E9F70E949D1633C0662309F439CF7A
:103180004D875E878D859E850E943816882309F4B9
:1031900030CFCBCF4D875E878D859E850E94781B73
:1031A000292F22952F7030E0223031052CF49F70AA
:1031B00041F0811106C00CC0243031052CF49F7001
:1031C00049F4805E883020F0C8010E941513CF2C8E
:1031D000DC2C06C0D80115969C91907F91F7F8CF12
:1031E0008D2D62960FB6F894DEBF0FBECDBFDF9176
:1031F000CF911F910F91FF90EF90DF90CF900895A6
:103200001F93CF93DF93CDB7DEB72C970FB6F8940B
:10321000DEBF0FBECDBF4F83588769877A878B8704
:103220009C87CE0107960E9413178823C1F02F8137
:1032300038858A859B85892B31F03F3F11F080E0EE
:1032400003C02F3FE1F781E0811147C04F815885CE
:1032500069857A858B859C850E946C163EC086E0C8
:10326000FE013796DE01119601900D928A95E1F7E5
:10327000FF81E8854A855B854115510531F0EF3FB7
:1032800031F481E0FF3F19F403C081E001C080E028
:1032900080FD23C02091750130E0C901019687703F
:1032A00099276091740170E086179707F1F1F9830F
:1032B000EA835D834C8396E0929FD001939FB00D8B
:1032C0001124AA58BE4FFE01319601900D929A9595
:1032D000E1F7809375010E947C1616E080917401DD
:1032E00090917501891779F1189FC00111248A58AE
:1032F0009E4F0E941317882331F1E09174011E9FA5
:10330000F0011124EA58FE4F40815181628173819E
:10331000848195810E946C168091740190E00196E1
:103320008770992780937401D9CF0E943416109228
:10333000750110927401E6EAF1E086E0DF011D926A
:103340008A95E9F7CACF2C960FB6F894DEBF0FBE68
:10335000CDBFDF91CF911F910895DF92EF92FF9241
:103360000F931F93CF93DF939C01009709F48AC0BA
:10337000E12CF12CDD24D394E9012196F90184910B
:10338000853709F462C058F4843708F04EC08430A1
:1033900008F069C08130D1F0823071F173C0883794
:1033A00009F45CC050F4863709F454C0873709F03B
:1033B00069C08E2D0E946D1C53C09CE7980F9037FA
:1033C00008F060C08F770E94B8124FC089010E5F6D
:1033D0001F4FFE01C49180E28C0F883048F4C77003
:1033E0008D2D01C0880FCA95EAF70E94731C15C085
:1033F0008C2F0E94E51113C089010E5F1F4FFE0143
:10340000C49180E28C0F883060F4C7708D2D01C0AC
:10341000880FCA95EAF70E94791C0E949C1CE8015B
:1034200024C08C2F0E94B812FACF2E5F3F4FFE01AE
:10343000C491CC2341F08FE99FE00197F1F700C0E0
:103440000000C150F6CFE90110C0FE01F490E9017F
:1034500022960BC00E945D1CE82E07C00E94701CC3
:103460000E949C1C02C00E94E5119F2D992341F0EF
:10347000EFE9FFE03197F1F700C000009150F6CF7F
:103480009E017ACFDF91CF911F910F91FF90EF9026
:10349000DF90089508956093B0017093B101809317
:1034A000B2019093B3010C9422160F931F930091D5
:1034B000B0011091B1012091B2013091B301062BFE
:1034C000172B282B392B0093B0011093B1012093B7
:1034D000B2013093B3011F910F910C9422160F93F8
:1034E0001F930091B0011091B1012091B201309170
:1034F000B30106231723282339230093B001109327
:10350000B1012093B2013093B3011F910F910C943C
:1035100022160F931F930091B0011091B1012091D9
:10352000B2013091B30106271727282739270093C6
:10353000B0011093B1012093B2013093B3011F91F8
:103540000F910C9422161092AC011092AD011092C2
:10355000AE011092AF010C94221641E050E060E001
:1035600070E004C0440F551F661F771F8A95D2F77D
:103570004093AC015093AD016093AE017093AF01E5
:103580000C94221641E050E060E070E004C0440F6B
:10359000551F661F771F8A95D2F78091AC019091D5
:1035A000AD01A091AE01B091AF01842B952BA62B5C
:1035B000B72B8093AC019093AD01A093AE01B09373
:1035C000AF010C94221641E050E060E070E004C0CE
:1035D000440F551F661F771F8A95D2F74095509567
:1035E000609570958091AC019091AD01A091AE0174
:1035F000B091AF0184239523A623B7238093AC0118
:103600009093AD01A093AE01B093AF010C9422163C
:1036100041E050E060E070E004C0440F551F661FB9
:10362000771F8A95D2F78091AC019091AD01A0915E
:10363000AE01B091AF0184279527A627B7278093C5
:10364000AC019093AD01A093AE01B093AF010C9487
:1036500022160F931F930091AC011091AD012091A0
:10366000AE013091AF01062B172B282B392B00937D
:10367000AC011093AD012093AE013093AF011F91C7
:103680000F910C9422160F931F930091AC0110918F
:10369000AD012091AE013091AF01062317232823FD
:1036A00039230093AC011093AD012093AE01309308
:1036B000AF011F910F910C9422160F931F9300914D
:1036C000AC011091AD012091AE013091AF01062700
:1036D0001727282739270093AC011093AD012093B9
:1036E000AE013093AF011F910F910C9422160895F3
:1036F000CF92DF92EF92FF920F931F93CF93DF93BE
:10370000EC01C090B001D090B101E090B201F09016
:10371000B3018091AC019091AD01A091AE01B09147
:10372000AF01C82AD92AEA2AFB2A0FE110E0B70123
:10373000A601002E04C076956795579547950A9483
:10374000D2F740FF07C0BE01802F0E94AB1E813020
:10375000910539F40150110950F7BE0180E00E9433
:10376000AB1EDF91CF911F910F91FF90EF90DF90F3
:10377000CF90089590910B01992361F190910C01E4
:10378000992341F1982F9695969596959F3088F4B8
:10379000E0910D01F0910E01E90FF11D877021E01C
:1037A00030E001C0220F8A95EAF78181822B818364
:1037B00008959091C70190FF2DC01F928F938BE4C5
:1037C00094E09F938F930E94F1060F900F900F90BB
:1037D0000F90089540910D0150910E0120E030E0CE
:1037E0009FEFFA01E20FF31F6281681799F09F3F84
:1037F00019F4611101C0922F2F5F3F4F2E30310518
:1038000081F79F3F39F0FA01E90FF11D97FDFA9515
:1038100082830895089590910B01992369F1909105
:103820000C01992349F1982F9695969596959F307E
:1038300090F4E0910D01F0910E01E90FF11D8770F8
:1038400021E030E001C0220F8A95EAF720958181BE
:103850002823218308959091C70190FF1FC01F92D4
:103860008F938DE294E09F938F930E94F1060F90C7
:103870000F900F900F90089540910D0150910E01FF
:1038800020E030E0FA01E20FF31F9281981301C0AB
:1038900012822F5F3F4F2E303105A1F7089581E04E
:1038A00090E0E0910D01F0910E01E80FF91F1082F8
:1038B000019680319105A9F708958091C601089578
:1038C0009091C601982B9093C60108958095909190
:1038D000C60198239093C60108958093C601089568
:1038E0001092C60108959091C501982B9093C5013F
:1038F000089580959091C50198239093C5010895EE
:103900001092C50108958093B40108951092B401F6
:10391000089540910D0150910E0120E030E080E0CB
:10392000FA01E20FF31F918191118F5F2F5F3F4FDB
:103930002F303105A9F70895E0910D01F0910E01A6
:103940008091C6018083E0910D01F0910E0180818C
:103950009091C501892B80839091B401992361F0E6
:10396000E0910D01F0910E018081892B80830E94EE
:10397000891C81111092B40180910D0190910E016A
:103980000C945110909339018093380108958295D9
:10399000982F9C7C96959695837344E0849F900124
:1039A0001124922B892F8A7A86959575990F892BE8
:1039B00008951F93CF93DF931F92CDB7DEB79983FE
:1039C0000E94C71C182F9981892F0E94C71C212F84
:1039D00030E0322F2227A901482BCA010F90DF9136
:1039E000CF911F9108958091DC01843009F11092EC
:1039F000C80120E488E190E00FB6F894A895809380
:103A000060000FBE2093600083B7817F846083BF16
:103A100083B7816083BF7894889583B78E7F83BF97
:103A200088E10FB6F89480936000109260000FBE9A
:103A3000089508950895CF930E94191D0E944A0782
:103A40000E941A1DC0E08C2F0E945408892B29F473
:103A5000CF5FC530C1F780E001C081E0CF9108950C
:103A60000C9434161F920F920FB60F9211248F935D
:103A70009F93AF93BF938091C801811113C0809130
:103A8000C9019091CA01A091CB01B091CC0141969E
:103A9000A11DB11D8093C9019093CA01A093CB01D0
:103AA000B093CC01BF91AF919F918F910F900FBEBA
:103AB0000F901F90189582E084BD93E095BD9AEF1A
:103AC00097BD80936E0008952FB7F8948091C90137
:103AD0009091CA01A091CB01B091CC012FBF089564
:103AE0002FB7F8946091C9017091CA018091CB0100
:103AF0009091CC012FBF0895CF92DF92EF92FF9269
:103B00000F931F932FB7F8944091C9015091CA01A8
:103B10006091CB017091CC012FBF6A017B01EE2433
:103B2000FF248C0120E030E0C016D106E206F30647
:103B300010F441505109481B590BCA011F910F91B4
:103B4000FF90EF90DF90CF9008951F920F920FB6E5
:103B50000F9211248F939F93AF93BF938091C901CC
:103B60009091CA01A091CB01B091CC010196A11D09
:103B7000B11D8093C9019093CA01A093CB01B0936A
:103B8000CC01BF91AF919F918F910F900FBE0F907D
:103B90001F9018950E94690DF8942FEF87EA91E61F
:103BA000215080409040E1F700C0000087E090EB9A
:103BB000DC018093E6019093E701A093E801B093C4
:103BC000E9012CE088E190E00FB6F894A895809385
:103BD00060000FBE20936000FFCF8D3B60F4883AF9
:103BE00080F5853A28F5843008F5813009F06BC0FE
:103BF00081E090E00895883E98F4803EB8F48F3BD1
:103C000009F061C00E9434162FEF80E792E0215046
:103C100080409040E1F700C000000E94CA1D53C0E0
:103C2000803F08F450C090E09065089590E00895BA
:103C3000853A09F44BC0863A09F04BC082E890E41B
:103C40000895883A09F448C0893A09F448C08A3A84
:103C500009F448C08B3A09F448C08C3A09F448C0CA
:103C60008D3A09F448C08E3A09F448C08F3A09F4F5
:103C700048C0813B09F448C0803B09F448C0823BFE
:103C800009F448C0833B09F448C0843B09F448C0A8
:103C9000853B09F448C0863B09F448C0873B09F4DA
:103CA00048C0883B09F448C0893B09F448C08A3BB6
:103CB00009F448C08B3B09F448C08C3B09F048C06C
:103CC0008AE296E4089580E090E0089581E890E427
:103CD000089583E890E4089582EE94E4089589EECF
:103CE00094E408958AEE94E4089585EB94E40895AD
:103CF00086EB94E4089583EB94E4089584EB94E4D4
:103D0000089587EB94E408958CEC94E408958DEC89
:103D100094E4089583E895E408958AE895E4089585
:103D200082E995E4089584E995E4089581E296E4B2
:103D3000089583E296E4089584E296E4089585E286
:103D400096E4089586E296E4089587E296E408955D
:103D500080E094E408950E94FA06803EA8F4803C36
:103D600000F5813309F45CC038F4893209F452C09B
:103D70008A3209F45BC05FC08933B1F08238A1F0A8
:103D8000853309F441C057C0833E41F128F4803E99
:103D900099F0823EB9F04FC0863E31F1873E71F115
:103DA0004AC00E94090708959091E50190FD02C064
:103DB00091FF41C080EE3FC08091E50180FFFACFC6
:103DC00089E339C08091E50182FF0CC08091E50153
:103DD00084FF02C080E02FC083EE2DC08091E501FA
:103DE00082FFF4CF82EE27C08091E50183FF0AC0F5
:103DF0008091E50184FDEECF87EE1DC08091E50145
:103E000083FFF6CF86EE17C08091E50185FF06C0DF
:103E100089E211C08091E50185FFFACF85E30BC0EF
:103E20008091E50186FF06C08AE205C08091E50128
:103E300086FFFACF81E30E94ED1D089580E090E0B7
:103E400008950895BF92CF92DF92EF92FF920F9361
:103E50001F93CF93DF938C01B12CEE24E394F12CCC
:103E60008B2D0E9454086C01C0E0D0E097010C2E0D
:103E700002C0220F331F0A94E2F72C213D21232B8D
:103E8000B1F06C2F7B2D80E00E94AB1E9C0180174F
:103E9000910759F0832F807E932F907C11F0803A08
:103EA00031F430E02017310711F481E009C0219688
:103EB000CD30D105D9F6B39485E0B812D1CF80E0EA
:103EC000DF91CF911F910F91FF90EF90DF90CF90F6
:103ED000BF900895CF93DF93EC018CE290E00E94B5
:103EE000221F882329F0CE01DF91CF910C94221F4D
:103EF00080E0DF91CF910895CF930E94E02081115F
:103F000002C00E94C62080E794E00E945806C5E6E1
:103F1000C15049F00E944A078FE39CE90197F1F7ED
:103F200000C00000F5CF89E694E00E94580689E2BF
:103F300090E00E946A1F811127C18AE290E00E94EE
:103F40006A1F81110E94C62085E090E00E946A1FCE
:103F500081110E94CA1D0E94EB208093C70187E057
:103F600090E00E946A1F8823B1F18BE190E00E94EB
:103F70006A1F882351F09091C70191FB882780F92F
:103F800021E0822780FB91F924C08EE090E00E941E
:103F90006A1F882351F09091C70192FB882780F90E
:103FA00021E0822780FB92F914C080E190E00E941A
:103FB0006A1F9091C701882341F093FB882780F9FD
:103FC00021E0822780FB93F904C0892F809580FB34
:103FD00090F99093C7018091C7010E94EF200E9441
:103FE000FD208093E50180EE90E00E946A1F882307
:103FF00041F08091E501982F909590FB80F9809396
:10400000E50189E390E00E946A1F882359F09091AE
:10401000E50191FB882780F921E0822780FB91F957
:104020009093E50182EE90E00E946A1F882359F088
:104030009091E50192FB882780F921E0822780FB9F
:1040400092F99093E50186EE90E00E946A1F882322
:1040500059F09091E50193FB882780F921E08227B0
:1040600080FB93F99093E50183EE90E00E946A1F34
:10407000882359F09091E50194FB882780F921E08D
:10408000822780FB94F99093E50185E390E00E94FC
:104090006A1F882359F09091E50195FB882780F9E4
:1040A00021E0822780FB95F99093E50181E390E080
:1040B0000E946A1F882359F09091E50196FB88279A
:1040C00080F921E0822780FB96F99093E50181E158
:1040D00090E00E946A1F882359F09091E50197FBB8
:1040E000882780F921E0822780FB97F99093E501EA
:1040F0008091E5010E9401218091E50187FB8827DD
:1041000080F980930C0187E290E00E946A1FC82F1B
:104110008EE190E00E946A1F8111C2608FE190E001
:104120000E946A1F8111C46080E290E00E946A1FB1
:104130008111C86081E290E00E946A1F8111C06114
:1041400082E290E00E946A1F8111C06283E290E0E7
:104150000E946A1F8111C06484E290E00E946A1F7D
:10416000882311F0C06802C0CC2329F08C2F0E9454
:10417000F8206C2F03C00E94F420682F70E080E0CC
:1041800090E0CF910C944B1ACF9108956DEE7EEF95
:1041900080E090E00E94422A60E082E090E00E948D
:1041A000342A60E083E090E00E94342A60E084E0FA
:1041B00090E00E94342A60E085E090E00C94342A7C
:1041C00080E090E00E942E2A21E08D3E9E4F09F073
:1041D00020E0822F089582E090E00C94262A682F38
:1041E00082E090E00C94342A83E090E00C94262A3C
:1041F000682F83E090E00C94342A84E090E00C94E3
:10420000262A682F84E090E00C94342A8091CF0114
:1042100080FF0BC06091120185E0689FB0011124FE
:1042200075956795759567952AC081FF09C060915E
:10423000120185E0689FB0011124759567951FC034
:1042400082FF07C06091120185E0689FB0011124D0
:1042500016C04091D0014423C9F060911101461766
:1042600088F72091120185E0289F90011124429F38
:10427000C001439F900D112470E00E94F82960381E
:10428000710540F46115710539F002C065E070E018
:10429000862F08958FE7089581E008958091CF01DA
:1042A00080FF08C06091100170E075956795759565
:1042B000679521C081FF06C06091100170E075957F
:1042C000679519C082FF04C06091100170E010C0B2
:1042D0008091D0018823C1F060910F018617A0F76B
:1042E00090911001989FC001112470E00E94F8295C
:1042F0006038710528F46115710521F0862F089545
:104300008FE7089581E0089561E070E0F4CF803F89
:1043100021F40E940621819504C0813F29F40E9466
:1043200006218093D3010895823F21F40E94062143
:10433000819504C0833F29F40E9406218093D20115
:104340000895893F19F40E944E2105C08A3F31F437
:104350000E944E2181958093D40108958B3F21F4D2
:104360000E944E21819504C08C3F29F40E944E2169
:104370008093D5010895843F21F48091D10181601B
:1043800017C0853F21F48091D101826011C0863F22
:1043900021F48091D10184600BC0873F21F480918A
:1043A000D101886005C0883F31F48091D1018061DE
:1043B0008093D10108958D3F21F48091CF018160D8
:1043C0000BC08E3F21F48091CF01826005C08F3FEA
:1043D00029F48091CF0184608093CF010895803FBC
:1043E00039F48091D30187FF6CC01092D30169C06A
:1043F000813F29F48091D3011816BCF362C09091DB
:10440000D201823F29F497FF5CC01092D20159C0BB
:10441000833F19F41916CCF354C0893F41F48091BD
:10442000D40118160CF04DC01092D4014AC08A3F36
:1044300029F48091D40187FF44C0F6CF8B3F39F433
:104440008091D50187FF3DC01092D5013AC08C3FC5
:1044500029F48091D5011816BCF333C0843F21F4B0
:104460008091D1018E7F17C0853F21F48091D101C9
:104470008D7F11C0863F21F48091D1018B7F0BC0CD
:10448000873F21F48091D101877F05C0883F31F4B7
:104490008091D1018F7E8093D10113C08D3F21F493
:1044A0008091CF018E7F0BC08E3F21F48091CF0190
:1044B0008D7F05C08F3F29F48091CF018B7F809342
:1044C000CF018091D20181110EC08091D301811161
:1044D0000AC08091D401811106C08091D50181115B
:1044E00002C01092D00108958091C70183FF7EC061
:1044F0008CEA94E00E9458068091D1011F928F931C
:1045000087EA94E09F938F930E94F10685EA94E0F6
:104510000E9458062091D201822F992787FD9095FD
:104520009F932F9382EA94E09F938F930E94F106CA
:1045300080EA94E00E9458062091D301822F9927A7
:1045400087FD90959F932F938DE994E09F938F9390
:104550000E94F1068BE994E00E9458062091D40154
:10456000822F992787FD90959F932F9388E994E058
:104570009F938F930E94F10686E994E00E9458066B
:104580002091D501822F992787FD90959F932F9396
:1045900083E994E09F938F930E94F10680E994E071
:1045A0000E9458068091D0011F928F938DE894E06D
:1045B0009F938F930E94F1068BE894E00E94580627
:1045C0008091CF011F928F9388E894E09F938F93FF
:1045D0000E94F10685E894E00E9458068DB79EB7C8
:1045E0004C960FB6F8949EBF0FBE8DBF81ED91E043
:1045F0000E9496100E94641D9093CE018093CD017D
:1046000008951F93CF93DF938091CD019091CE01B8
:104610000E947C1D4091D001442321F02091130180
:1046200030E006C0209114015AE0259F900111242A
:104630008217930708F482C08091D2011091D301B0
:10464000D091D401C091D501811107C0111105C0CD
:10465000D11103C0CC2309F471C04F3F19F04F5F53
:104660004093D001181624F40E9406218093D201B1
:104670008091D20187FF05C00E9406218195809319
:10468000D201111624F40E9406218093D301809157
:10469000D30187FF05C00E94062181958093D30135
:1046A0006091D201662339F11091D301112319F1E0
:1046B000772767FD7095872F972F0E94FD2823E3AA
:1046C00033E343E35FE30E9461290E94CA286093B9
:1046D000D201612F772767FD7095872F972F0E9452
:1046E000FD2823E333E343E35FE30E9461290E9453
:1046F000CA286093D3011D1624F40E944E21809392
:10470000D4018091D40187FF05C00E944E2181957C
:104710008093D4011C1624F40E944E218093D5016D
:104720008091D50187FF05C00E944E21819580931D
:10473000D501DF91CF911F910C947422DF91CF911D
:104740001F910895E1EDF1E085E0DF011D928A956A
:10475000E9F71092D0011092CF0108958FEC96E006
:104760000E9458061F9281E08F931F9285E08F93DD
:1047700081E896E09F938F930E94F1060F900F902F
:104780000F900F900F900F9008958330E9F128F467
:10479000813061F0823009F10895853009F462C0FA
:1047A00008F449C0863009F474C0089520911401BA
:1047B000862F90E0820F911D8F3F910520F4620FAC
:1047C0006093140103C08FEF809314018091140152
:1047D0001F928F938AEB95E072C020911301862F70
:1047E00090E0820F911D8F3F910520F4620F60933E
:1047F000130103C08FEF80931301809113011F9267
:104800008F9388EA95E05BC020911201862F90E09B
:10481000820F911D8F3F910520F4620F609312016A
:1048200003C08FEF80931201809112011F928F932A
:1048300085E995E044C020911101862F90E0820F18
:10484000911D8F3F910520F4620F6093110103C009
:104850008FEF80931101809111011F928F9380E857
:1048600095E02DC020911001862F90E0820F911DC0
:104870008F3F910520F4620F6093100103C08FEF0A
:1048800080931001809110011F928F9387E695E02D
:1048900016C020910F01862F90E0820F911D8F3F4F
:1048A000910520F4620F60930F0103C08FEF809396
:1048B0000F0180910F011F928F938CE495E09F93DD
:1048C0008F930E94F1060F900F900F900F90089514
:1048D000833081F128F4813059F08230D1F008958D
:1048E000853009F449C0B8F1863009F456C00895FE
:1048F00080911401681720F4861B8093140102C074
:1049000010921401809114011F928F938DE395E012
:1049100054C080911301681720F4861B8093130103
:1049200002C010921301809113011F928F938BE2AA
:1049300095E043C080911201681720F4861B809394
:10494000120102C010921201809112011F928F93E6
:1049500088E195E032C080911101681720F4861B30
:104960008093110102C010921101809111011F92D8
:104970008F9383E095E021C080911001681720F4A7
:10498000861B8093100102C01092100180911001CB
:104990001F928F938AEE94E010C080910F016817E8
:1049A00020F4861B80930F0102C010920F018091AA
:1049B0000F011F928F938FEC94E09F938F930E942F
:1049C000F1060F900F900F900F900895CF93C82F7E
:1049D0001F928F9324ED37E03F932F930E94F106AF
:1049E00061E070E080E090E004C0660F771F881FF0
:1049F000991FCA95D2F70E944B1A0F900F900F90F3
:104A00000F90CF910C943416CF938B3109F4CBC116
:104A100008F049C08E3009F4D9C100F5873009F497
:104A2000A9C1A8F4863009F057C28091C701817FDF
:104A30008E7F8093C70189ED97E00E9458068CEF26
:104A40009BE00E94580681E08093D70191C1883095
:104A500009F45BC08B3009F487C13EC2813109F48F
:104A600023C220F4803109F4C4C136C2863109F46E
:104A7000DAC1893109F030C280E79BE00E94580614
:104A800087E49BE00E94580682E19BE00E94580662
:104A90008BEE9AE00E94580686EA9AE00E94580639
:104AA0008BE79AE063C1853309F410C268F487325A
:104AB00009F40CC228F48E3108F40EC28D5109C2DB
:104AC000893209F403C208C2833438F48A3308F007
:104AD000FFC1883309F448C1FFC1833409F4F6C12A
:104AE000883409F0F9C10E9434168BEE9BE00E94D5
:104AF00058069FEF23ED80E3915020408040E1F77E
:104B000000C000000E94CA1D33C180E09CE00E94EA
:104B1000580688ED99E00E9458060E94F4201F92E2
:104B20008F9385ED99E09F938F930E94F10683ED1B
:104B300099E00E9458060E94EB20C82F80EC99E073
:104B40000E9458061F92CF932BEB39E03F932F938F
:104B50000E94F10689EB99E00E9458068FEA99E0DD
:104B60000E9458068C2F81701F928F932CEA39E097
:104B70003F932F930E94F1068AEA99E00E9458061B
:104B800080EA99E00E945806C1FB882780F91F92AD
:104B90008F932DE939E03F932F930E94F1068BE923
:104BA00099E00E9458068FE899E00E945806C2FBDF
:104BB000882780F91F928F932CE839E03F932F9339
:104BC0000E94F1068AE899E00E94580681E899E07F
:104BD0000E945806C3FBCC27C0F91F92CF938EE7E3
:104BE00099E09F938F930E94F1068CE799E00E94D1
:104BF00058060E94FD20C82F88E699E00E945806BA
:104C00001F92CF9323E639E03F932F930E94F10642
:104C100081E699E00E94580688E499E00E945806CF
:104C20008C2F81701F928F9325E439E03F932F934F
:104C30000E94F1068DB79EB780960FB6F8949EBF7E
:104C40000FBE8DBF83E499E00E9458068CE299E084
:104C50000E945806C1FB882780F91F928F9329E292
:104C600039E03F932F930E94F10687E299E00E947A
:104C7000580685E199E00E945806C2FB882780F912
:104C80001F928F9322E139E03F932F930E94F10608
:104C900080E199E00E9458068EEF98E00E94580645
:104CA000C3FB882780F91F928F932BEF38E03F9347
:104CB0002F930E94F10689EF98E00E9458068FEE2C
:104CC00098E00E945806C4FB882780F91F928F93B2
:104CD0002CEE38E03F932F930E94F1068AEE98E085
:104CE0000E94580688ED98E00E945806C5FB882768
:104CF00080F91F928F9325ED38E03F932F930E9408
:104D0000F10683ED98E00E94580687EB98E00E9438
:104D10005806C6FB882780F91F928F9324EB38E052
:104D20003F932F930E94F10682EB98E00E94580671
:104D30008AEA98E00E945806C7FBCC27C0F91F9268
:104D4000CF9387EA98E09F938F930E94F10685EABC
:104D500098E00E9458068DB79EB74C960FB6F8940F
:104D60009EBF0FBE8DBF04C080E098E00E94580631
:104D7000C1E0B7C08091C701C82FC17080FF09C0D2
:104D80008EED9BE00E9458068091C701817F8E7F47
:104D900044C082ED9BE00E9458068091C70181606B
:104DA0008093C701E5CF8091C70181FBCC27C0F973
:104DB00091E0C927C0FB81F98093C701CC2319F08A
:104DC00085EC9BE025C087EB9BE0D0CF8091C701AD
:104DD00082FBCC27C0F991E0C927C0FB82F9809300
:104DE000C701CC2319F088EA9BE012C088E99BE058
:104DF000BDCF8091C70183FBCC27C0F991E0C927C3
:104E0000C0FB83F98093C701CC2351F08CE89BE071
:104E10000E9458068091C70181608093C70161C0DC
:104E20008FE79BE0A3CF8DE69AE00E9458060E9490
:104E300045101F928F9383E59AE09F938F930E9472
:104E4000F10680910B011F928F938CE39AE09F9360
:104E50008F930E94F106809162011F928F9389E2E5
:104E60009AE09F938F930E94F10680910C011F920C
:104E70008F9386E19AE09F938F930E94F1060E94A0
:104E8000701D9F938F937F936F938FEF99E09F9304
:104E90008F930E94F1068DB79EB746960FB6F89491
:104EA0009EBF0FBE8DBF64CF0E943416C0910C010F
:104EB00081E0C827C0930C01CC2329F085EF99E04D
:104EC0000E9458060EC08AEE99E050CF80E001C0E3
:104ED00089530E94E6244CCF88EE99E00E94580640
:104EE000C0E08C2FCF91089580E0089580E0089570
:104EF000CF93C82F8091D701813071F020F082309C
:104F000009F448C03FC1A0910D01B0910E018C91F0
:104F1000823209F039C107C0A0910D01B0910E0194
:104F20008C91823249F48C2F0E94742781112FC0FA
:104F30008C2F0E9404252CC08C2F0E947627811173
:104F400026C0C431E1F070F4CB3081F0C031D1F42F
:104F50000E94AE238CEC97E00E94580682E080937A
:104F6000D70115C0C93259F0C83361F489ED97E013
:104F70000E94580680ED97E00E94580608C01092E3
:104F8000D70104C18AEC97E00E945806FFC081E077
:104F90008170FEC0C43228F5CE3108F0C1C0CB30DC
:104FA000A1F1D0F4C73009F0D3C08EE18093140191
:104FB00082E3809313018AE08093120184E180935D
:104FC000110188E08093100188E280930F0180E74F
:104FD00096E00E945806BFC0C33149F1C431C1F008
:104FE000B7C0CB3409F4A9C028F4C93289F0C8335A
:104FF00061F0AEC0C13509F49EC0C23509F499C054
:10500000CE3409F0A5C06AE09EC00E94AE23A3C0C2
:105010008091D601882319F01092D6019CC08DE7AB
:1050200096E00E94580681E08093D701B1C087E5E1
:1050300096E00E94580685E496E00E94580680910A
:1050400014011F928F9382E496E09F938F930E94A6
:10505000F10680E496E00E9458068EE296E00E94F7
:105060005806809113011F928F938BE296E09F93D5
:105070008F930E94F10689E296E00E9458068AE129
:1050800096E00E945806809112011F928F9387E14B
:1050900096E09F938F930E94F10685E196E00E942F
:1050A000580684E096E00E945806809111011F92F4
:1050B0008F9381E096E09F938F930E94F1068FEF8C
:1050C00095E00E9458068AEE95E00E94580680916D
:1050D00010011F928F9387EE95E09F938F930E940C
:1050E000F10685EE95E00E9458068EEC95E00E9450
:1050F000580680910F011F928F938BEC95E09F9340
:105100008F930E94F10689EC95E00E9458068DB7B6
:105110009EB748960FB6F8949EBF0FBE8DBF1BC0BA
:10512000CE51EC2FF0E0E25DFE4F80818093D601FE
:1051300012C061E003C061E006C06AE08091D60160
:105140000E94C52308C08091D6010E94682403C034
:105150008EE696E013C08091D601882369F01F92F5
:105160008F9388E696E09F938F930E94F1060F90AD
:105170000F900F900F9004C085E696E00E945806AD
:1051800081E006C01092D70180E002C080E000CF2D
:10519000CF91089504D06894B1118DC0089570D056
:1051A00088F09F5790F0B92F9927B751A0F0D1F010
:1051B000660F771F881F991F1AF0BA95C9F712C09A
:1051C000B13081F077D0B1E0089574C0672F782FA7
:1051D0008827B85F39F0B93FCCF386957795679506
:1051E000B395D9F73EF490958095709561957F4F72
:1051F0008F4F9F4F0895E89409C097FB3EF4909518
:105200008095709561957F4F8F4F9F4F9923A9F09F
:10521000F92F96E9BB279395F6958795779567952E
:10522000B795F111F8CFFAF4BB0F11F460FF1BC072
:105230006F5F7F4F8F4F9F4F16C0882311F096E905
:1052400011C0772321F09EE8872F762F05C06623B3
:1052500071F096E8862F70E060E02AF09A95660F6C
:10526000771F881FDAF7880F9695879597F9089525
:1052700057FD9058440F551F59F05F3F71F0479507
:10528000880F97FB991F61F09F3F79F087950895EC
:10529000121613061406551FF2CF4695F1DF08C00B
:1052A000161617061806991FF1CF86957105610528
:1052B00008940895E894BB2766277727CB0197F9D0
:1052C00008950BD078C069D028F06ED018F09523DF
:1052D00009F05AC05FC01124EECFCADFA0F3959F3A
:1052E000D1F3950F50E0551F629FF001729FBB27CD
:1052F000F00DB11D639FAA27F00DB11DAA1F649F79
:105300006627B00DA11D661F829F2227B00DA11D2B
:10531000621F739FB00DA11D621F839FA00D611DB1
:10532000221F749F3327A00D611D231F849F600DD2
:10533000211D822F762F6A2F11249F5750408AF00B
:10534000E1F088234AF0EE0FFF1FBB1F661F771F97
:10535000881F91505040A9F79E3F510570F014C02E
:10536000AACF5F3FECF3983EDCF38695779567957F
:10537000B795F795E7959F5FC1F7FE2B880F911DB5
:105380009695879597F9089597F99F6780E870E05B
:1053900060E008959FEF80EC089500240A941616AB
:1053A000170618060906089500240A941216130613
:1053B000140605060895092E0394000C11F48823A1
:1053C00052F0BB0F40F4BF2B11F460FF04C06F5FBD
:1053D0007F4F8F4F9F4F0895991B79E004C0991F0D
:1053E000961708F0961B881F7A95C9F7809508953F
:1053F00097FB072E16F4009407D077FD09D00E9482
:10540000122A07FC05D03EF4909581959F4F089590
:10541000709561957F4F0895EE0FFF1F0590F491F1
:10542000E02D0994AA1BBB1B51E107C0AA1FBB1F9B
:10543000A617B70710F0A61BB70B881F991F5A9520
:10544000A9F780959095BC01CD010895F999FECFFB
:1054500092BD81BDF89A992780B50895A8E1B0E082
:1054600042E050E00C94492A262FF999FECF1FBA4A
:1054700092BD81BD20BD0FB6F894FA9AF99A0FBE7D
:10548000019608950E94342A272F0C94352ADC01B6
:10549000CB01FC01F999FECF06C0F2BDE1BDF89A3F
:1054A000319600B40D9241505040B8F70895F894E9
:0254B000FFCF2C
:1054B20005A508960973093F090C090101B50128E0
:1054C20008140A321E3F4D362039BA036D033703E2
:1054D2001703DE0251026A0283029C02BC0201022D
:0854E200030405060708090098
:00000001FF
