:100000000C94EC040C9433050C9433050C943305D8
:100010000C9433050C9433050C9433050C94330580
:100020000C9433050C9433050C94311F0C9404206C
:100030000C949D160C9433050C9433050C943305E5
:100040000C9433050C9433050C9433050C94330550
:100050000C9433050C9405170C9433050C9433055C
:100060000C9433050C9433050C9433050C94330530
:100070000C9433050C9433050C9433050C94330520
:100080000C9433050C9433050C9433050C94330510
:100090000C9433050C9433050C9433050C94330500
:1000A0000C9433050C9433050C94330529001E0081
:1000B0001F002100220023002400260027002D001D
:1000C0002E002A002B0014001A00200017001C002C
:1000D0001800250013002F003000310082000400BA
:1000E0001600080015000B000D000C001200330074
:1000F00034002800E1001D001B00070009000A0071
:1001000011000E000F0037003800E500E000E200AB
:1001100000000600190005002C0010003600000049
:10012000E600015135003A003B003D003E003F0033
:10013000400042004300440045004C000100010023
:1001400052003C0001000100010041004800520043
:1001500001000100010050005100010001000100F8
:1001600049004600470050004F0001000100A9006F
:10017000A8004F000100010001004B004A004D00A3
:1001800051000100010001000000AA00010001006F
:1001900001004C004E0000000100010001000100C0
:1001A0000100010001000100010001000100010047
:1001B0000100010001000100010001000100010037
:1001C0000100010001000100010001000100010027
:1001D0000100010001000100010001000100010017
:1001E0000100010001000100010001000100010007
:1001F00001000100010001000100010001000100F7
:1002000000000100010001000100010001000000E8
:1002100001000100010001000100010001000100D6
:1002200001000100010001000100010001000100C6
:1002300001000100010001000100010001000100B6
:1002400001000100010001000100010001000100A6
:100250000100010001000100010001000100010096
:100260000100010001000100010001000100010086
:100270000100010001000100000001000100010077
:100280000100010001000000010001000100010067
:100290000100010001000100010001000100010056
:1002A0000100010001000100010001000100010046
:1002B0000100010001000100010001000100010036
:1002C0000100010001000100010001000100010026
:1002D0000100010001000100010001000100010016
:1002E0000100010001000100010001000100010006
:1002F00000000100010001000100010001000000F8
:1003000001000100010001000100010001000100E5
:1003100001000100010001000100010001000100D5
:1003200001000100010001000100010001000100C5
:1003300001000100010001000100010001000100B5
:1003400001000100010001000100010001000100A5
:100350000100010001000100010001000100010095
:100360000100010001000100000001000100010086
:100370000100010001000000010001000100010076
:100380000100010001000100010001000100010065
:100390000100010001000100010001000100010055
:1003A0000100010001000100010001000100010045
:1003B0000100010001000100010001000100010035
:1003C0000100010001000100010001000100010025
:1003D0000100010001000100010001000100010015
:1003E0000000010001000100010001000100000007
:1003F00001000100010001000100010001000100F5
:1004000001000100010001000100010001000100E4
:1004100001000100010001000100010001000100D4
:1004200001000100010001000100010001000100C4
:1004300001000100010001000100010001000100B4
:1004400001000100010001000100010001000100A4
:100450000100010001000100000001000100010095
:100460000100010001000000010001000100010085
:100470000100010001000100010001000100010074
:100480000100010001000100010001000100010064
:100490000100010001000100010001000100010054
:1004A0000100010001000100010001000100010044
:1004B0000100010001000100010001000100010034
:1004C0000100010001000100010001000100010024
:1004D0000000010001000100010001000100000016
:1004E0000100010001000100010001000100010004
:1004F00001000100010001000100010001000100F4
:1005000001000100010001000100010001000100E3
:1005100001000100010001000100010001000100D3
:1005200001000100010001000100010001000100C3
:1005300001000100010001000100010001000100B3
:1005400001000100010001000000010001000100A4
:100550000100010001000000010001000100010094
:100560000100010001000100010001000100010083
:100570000100010001000100010001000100010073
:100580000100010001000100010001000100010063
:100590000100010001000100010001000100010053
:1005A0000100010001000100010001000100010043
:1005B0000100010001000100010001000100010033
:1005C0000000010001000100010001000100000025
:1005D0000100010001000100010001000100010013
:1005E0000100010001000100010001000100010003
:1005F00001000100010001000100010001000100F3
:1006000001000100010001000100010001000100E2
:1006100001000100010001000100010001000100D2
:1006200001000100010001000100010001000100C2
:1006300001000100010001000000010001000100B3
:1006400001000100010000000100010001000100A3
:100650000100010001000100010001000100010092
:100660000100010001000100010001000100010082
:100670000100010001000100010001000100010072
:100680000100010001000100010001000100010062
:100690000100010001000100010001000100010052
:1006A0000100010001000100010001000100010042
:1006B0000000010001000100010001000100000034
:1006C0000100010001000100010001000100010022
:1006D0000100010001000100010001000100010012
:1006E0000100010001000100010001000100010002
:1006F00001000100010001000100010001000100F2
:1007000001000100010001000100010001000100E1
:1007100001000100010001000100010001000100D1
:1007200001000100010001000000010001000100C2
:1007300001000100010000000100010001000100B2
:1007400001000100010001000100010001000100A1
:100750000100010001000100010001000100010091
:100760000100010001000100010001000100010081
:100770000100010001000100010001000100010071
:100780000100010001000100010001000100010061
:100790000100010001000100010001000100010051
:1007A0000000010001000100010001000100000043
:1007B0000100010001000100010001000100010031
:1007C0000100010001000100010001000100010021
:1007D0000100010001000100010001000100010011
:1007E0000100010001000100010001000100010001
:1007F00001000100010001000100010001000100F1
:1008000001000100010001000100010001000100E0
:1008100001000100010001000000010001000100D1
:1008200001000100010000000100010012036B0043
:100830006500790062006F006100720064000000D2
:10084000160371006D006B006200750069006C009A
:1008500064006500720000000403090409026D00D1
:10086000040100A0FA0904000001030101000921AC
:10087000110100012240000705810308000A090454
:1008800001000103010200092111010001224D00B4
:100890000705820308000A090402000103000000A2
:1008A0000921110100012236000705830308000A0F
:1008B00009040300010300000009211101000122C5
:1008C0003900070584032000011201100100000017
:1008D00008EDFE606001000102000105010906A1AA
:1008E00001050719E029E715002501950875018123
:1008F00002050819012905950575019102950175F3
:100900000391010507190029F71500250195F875D0
:10091000018102C005010980A1018502160100269E
:1009200003001A81002A8300751095018100C0051B
:100930000C0901A1018503160100269C021A010081
:100940002A9C02751095018100C005010902A101D0
:100950000901A100050919012905150025019505C1
:100960007501810295017503810105010930093185
:100970001581257F95027508810609381581257F27
:10098000950175088106050C0A38021581257F95A9
:100990000175088106C0C005010906A101050719F6
:1009A000E029E7150025019508750181029501757B
:1009B0000881010508190129059505750191029520
:1009C00001750391010507190029FF150026FF0095
:1009D000950675088100C00011241FBECFEFDAE034
:1009E000DEBFCDBF04B603FE27C0809140029091C8
:1009F0004102A0914202B09143028730904BA74040
:100A0000B04BD1F410924002109241021092420277
:100A10001092430214BE84B7877F84BF0FB6F89448
:100A2000A8958091600088618093600010926000BA
:100A30000FBEE0E0F8E3099511E0A0E0B1E0E0E9E5
:100A4000F6E402C005900D92A833B107D9F722E071
:100A5000A8E3B1E001C01D92A034B207E1F70E9403
:100A6000801C0C9446230C94000090E080E00895D4
:100A70000895089581E0089581FF03C0579A5F9813
:100A800008955798FCCF81E008950C943A050E9490
:100A9000160F2FEF84E39CE0215080409040E1F757
:100AA00000C000000C942A17FF920F931F93CF935E
:100AB000DF938C01FC01C081D18180917201811191
:100AC0003FC082818823B9F1CE010E947D14F82EA7
:100AD000682FCE010E942314BE018F2D0E949B0619
:100AE000EC01B8010E944505882309F44AC0B80109
:100AF000CE010E94AB08882309F443C0C531F0E75A
:100B0000DF0718F5C23080E7D80708F04BC0C115E1
:100B1000E0E7DE0789F1C130D047D1F181E0809371
:100B20003A0180933B01C801DF91CF911F910F9152
:100B3000FF900C944305CE010E945214F82ECCCFA6
:100B4000CE010E947D14BE01C9CFCC3380E7D80707
:100B500009F4ACC0CD33D04709F7F801828188236E
:100B600009F4CBC010923B010E94CF16909339013B
:100B70008093380180E2A7C0F801828181110E9430
:100B8000470580E0DF91CF911F910F91FF9008956D
:100B9000F80182818823A9F380910002816080930B
:100BA0000002EFCFF8018281882309F4BCCF0E94B4
:100BB0002E16811102C00E9414160E944B1690E05E
:100BC0009093320280933102FE01E350F04780910E
:100BD00031028160E231F105C8F4EF50FA4F0C9414
:100BE000F62203060F06130617061B061F0623062A
:100BF00027062B062F06330637063B063F0643061D
:100C000047064B064F068091310282608093310285
:100C1000809131020E944F160E94160FB2CF809130
:100C200031028460F3CF809131028860EFCF8091F0
:100C300031028061EBCF809131028062E7CF8091F9
:100C400031028064E3CF809131028068DFCF8091F0
:100C500031028460EACF809131028E7FD7CF8091BC
:100C600031028D7FD3CF809131028B7FCFCF8091A6
:100C70003102877FCBCF809131028F7EC7CF8091A9
:100C800031028F7DC3CF809131028F7BBFCF8091A6
:100C900031028F77BBCF809131028B7FEACF909169
:100CA0003102892F97FB87F98058B0CFF8018281F4
:100CB000882361F010923A010E94CF169093390177
:100CC0008093380182E00E94A00C5BCF80913A01B2
:100CD00081110FC080913801909139010E94DB167B
:100CE000883C910530F486E20E94750B86E20E94F2
:100CF000510C82E00E94A70C44CF80913B018111EE
:100D00000FC080913801909139010E94DB16883C18
:100D1000910530F487E20E94750B87E20E94510C26
:100D200080E2E8CF0C94FA080C94FC080C943C0583
:100D30000C9496060895972F70E02CE0929F600D1A
:100D4000711D1124FB019CE3899FE00DF11D11240D
:100D5000EE0FFF1FE455FF4F859194910895FC011C
:100D6000EE0FFF1FE45DF74F8591949108950E9467
:100D70009B060E942A08811520E4920708F08DC086
:100D8000811540E3940708F0E8C0803E910508F023
:100D900071C0803C910508F0CCC0883A910580F480
:100DA000853A910508F0CAC08130910509F46EC0FA
:100DB00020F08430910508F069C090E080E008954B
:100DC0008D3B9105D0F7883A910509F404C1893A21
:100DD000910509F403C18A3A910509F402C18B3ADD
:100DE000910509F401C18C3A910509F400C18B3BCE
:100DF000910509F4FFC08C3B910509F4FEC08D3AC2
:100E0000910509F4FDC0803B910509F4FCC08E3AC0
:100E1000910509F4FBC08F3A910509F4FAC0813BB2
:100E2000910509F4F9C0823B910509F4F8C0833BB0
:100E3000910509F4F7C0843B910509F4F6C0853BA0
:100E4000910509F4F5C0863B910509F4F4C0873B90
:100E5000910509F4F3C0883B910509F4F2C0893B80
:100E6000910509F4F1C08A3B910509F4F0C080E0D6
:100E700094E408958F3F910509F048F4803F91056F
:100E800008F067C0883E910508F097CF0895811556
:100E900020E2920708F05FC00895811543E59407AA
:100EA00060F5811522E5920708F062C0811541E5E1
:100EB000940708F058C0811520E5920708F450C047
:100EC0009C0154E0369527955A95E1F7922F93703F
:100ED000482F437021E030E002C0220F331F4A95B3
:100EE000E2F73C68392B86958695837040E2849FB3
:100EF000C0011124822B932B0895811545E5940799
:100F000050F4811524E5920708F446C0982F8827ED
:100F1000846F906A0895811546E5940708F450C0DF
:100F20009C0130569F702115304108F046CF9062E9
:100F30000895805C91090E94AF060895853A910555
:100F400009F443C0863A910509F042C082E890E472
:100F50000895906508959F70EECF9927906C08953D
:100F60009F70906A0895982F8827816F906A0895DE
:100F7000AC014370552721E030E002C0220F331F3F
:100F80004A95E2F78695869540E2849FC001112438
:100F9000822B932B9C680895AC014370552721E068
:100FA00030E002C0220F331F4A95E2F786958695FE
:100FB00040E2849FC0011124822B932B9A680895EC
:100FC000982F882788279F71B2CF81E890E40895F1
:100FD00083E890E4089582EE94E4089589EE94E421
:100FE00008958AEE94E4089585EB94E4089586EBE1
:100FF00094E4089583EB94E4089584EB94E40895D5
:1010000087EB94E408958CEC94E408958DEC94E4DB
:10101000089583E895E408958AE895E4089582E9BF
:1010200095E4089584E995E4089581E296E40895AD
:1010300083E296E4089584E296E4089585E296E4D6
:10104000089586E296E4089587E296E408958AE298
:1010500096E41CCF8238910549F1B0F481339105B3
:1010600009F45CC048F48932910509F452C08A320F
:10107000910509F458C008958533910509F444C0D9
:101080008933910599F00895833E910531F138F443
:10109000803E910591F0823E9105B1F00895863E23
:1010A000910511F1873E910541F10895209131029A
:1010B0002370C9F080EE90E008952091310220FF66
:1010C00012C089E390E008952091310222FF0BC005
:1010D00024FF2EC090E080E008952091310222FD8F
:1010E0002AC024FDF7CF08952091310223FFFBCFC2
:1010F00024FDF0CF87EE90E008952091310223FF88
:10110000F0CF86EE90E008952091310225FD16C0C3
:1011100008952091310225FD14C0089520913102D7
:1011200026FD12C008952091310226FD10C00895B9
:1011300083EE90E0089582EE90E0089589E290E0D9
:10114000089585E390E008958AE290E0089581E3B0
:1011500090E0C9CF08950F931F93CF938C01FB01AB
:101160008281811106C0C1E08C2FCF911F910F9118
:101170000895C0914901C11125C00531104799F763
:101180000E94AA0881E0809349010E94CF169093A3
:1011900048018093470110923C0110923E01109249
:1011A0003D011092400110923F01109242011092B5
:1011B0004101109244011092430110924601109295
:1011C0004501D2CF80914701909148010E94DB16E2
:1011D000883C910540F680913C01E82FF0E0EE0F4D
:1011E000FF1FE35CFE4F118300838F5F80933C0100
:1011F000C0E0BACF0C9438050C943905CF93DF9337
:1012000085B7806885BF85B7806885BFAFE1B1E0ED
:1012100044E251E0C1E0D0E08D91E82FE295EF701B
:10122000F0E061A18F709E0101C0220F8A95EAF75C
:10123000922F9095962391A382A1822B82A34A1785
:101240005B0751F7A3E1B1E061E070E08D91E82F19
:10125000E295EF70F0E041A18F709B0101C0220F79
:101260008A95EAF7922F9095942391A382A1822BDD
:1012700082A381E0AF31B80749F71092550110926F
:10128000540110924B0110924A0110925701109292
:10129000560110924D0110924C011092590110927A
:1012A000580110924F0110924E0110925B01109262
:1012B0005A01109251011092500110925D0110924A
:1012C0005C011092530110925201DF91CF910C9466
:1012D00092066F927F929F92AF92BF92CF92DF92CF
:1012E000EF92FF920F931F93CF93DF93CAE4D1E065
:1012F0000FE111E0EE24E394F12CBB24B394C880F9
:10130000D98019821882D8018D918D01E82FE2953C
:10131000EF70F0E091A18F70970101C0220F8A95C4
:10132000EAF7892F822B81A382A1A22EA0948A2181
:1013300082A3B0EABA95F1F783E1682E81E0782EB6
:1013400090E080E0D3017D913D01472F42954F70A1
:1013500050E0DA0190969C90488159817F70D701C6
:1013600002C0AA0FBB1F7A95E2F7BD01692109F0FF
:101370006FC0B701082E02C0660F771F0A94E2F70C
:10138000462B572B5983488301968C309105D1F613
:1013900081A18A2181A382A1282B22A388819981FE
:1013A000C816D90641F0B0925E010E94CF16909304
:1013B000600180935F012296B1E004321B0709F0BF
:1013C0009ECF80915E01882391F180915F01909181
:1013D00060010E94DB16069750F180914A019091BE
:1013E0004B01909355018093540180914C01909151
:1013F0004D01909357018093560180914E01909139
:101400004F01909359018093580180915001909120
:10141000510190935B0180935A0180915201909108
:10142000530190935D0180935C0110925E010E94D4
:10143000940681E0DF91CF911F910F91FF90EF9083
:10144000DF90CF90BF90AF909F907F906F90089566
:1014500070E060E095CFE82FF0E0EE0FFF1FEC5A50
:10146000FE4F808191810895089590936601809345
:1014700065010895E0916501F0916601309721F0D2
:101480000190F081E02D099480E00895E0916501DC
:10149000F0916601309721F00280F381E02D0994EC
:1014A0000895E0916501F0916601309721F0048084
:1014B000F581E02D09940895209163013091640134
:1014C0002817390771F09093640180936301E091CC
:1014D0006501F0916601309721F00680F781E02DDB
:1014E000099408952091610130916201281739070C
:1014F00071F09093620180936101E0916501F09138
:101500006601309721F00084F185E02D099408955B
:1015100008950C94880A0E94C6160E94FE080C9436
:1015200097175F926F927F928F929F92AF92BF9226
:10153000CF92DF92EF92FF920F931F93CF93DF939F
:10154000CDB7DEB72A970FB6F894DEBF0FBECDBF7A
:101550000E94690998E6A92E91E0B92E10E000E0FA
:1015600088248394912C502E802F0E942B0A7C017A
:10157000F501C190D1905F01C816D90609F45EC08B
:101580008091000281FD0E94340A90E080E0CE2428
:10159000DF243401082E02C0660C771C0A94E2F79F
:1015A000960126213721232B09F443C08E835F82C5
:1015B000E620F72081E0EF2809F480E088870E9488
:1015C000CF168160782F9A8789874E815F816885E1
:1015D0008A850E944B0B000F111FF801E859FE4F3E
:1015E0008081918168267926718260820E941A1A10
:1015F0000E943A0A909167018917B9F10E943A0A4C
:10160000809367012A960FB6F894DEBF0FBECDBF58
:10161000DF91CF911F910F91FF90EF90DF90CF90CE
:10162000BF90AF909F908F907F906F905F900C9441
:10163000980601968C30910509F0ABCF0F5F1F4FD4
:101640000530110509F08FCF8FEF89838A831B82C4
:101650000E94CF168160782F9D838C8349815A81A7
:101660006B818D810E944B0BC1CF2A960FB6F894E7
:10167000DEBF0FBECDBFDF91CF911F910F91FF90C5
:10168000EF90DF90CF90BF90AF909F908F907F9022
:101690006F905F900895CF93DF93CDB7DEB72B9710
:1016A0000FB6F894DEBF0FBECDBF4F835887698752
:1016B0007A878B871E821D8285E0FE013796DE01C8
:1016C000119601900D928A95E1F749815A816B81BB
:1016D0007C818D819E812B960FB6F894DEBF0FBE64
:1016E000CDBFDF91CF910C94C811882309F4D8C0E5
:1016F000823871F40E943A0A81FDD2C089E30E94C7
:101700001D150E94E51589E30E945A150C94E515F4
:10171000833859F40E943A0A80FDC2C083E50E94D2
:101720001D150E94E51583E5EFCF843859F40E941A
:101730003A0A82FDB5C087E40E941D150E94E51596
:1017400087E4E2CF9CEF980F913A18F40E941D15A0
:10175000DDCF90E2980F983050F4877091E001C08F
:10176000990F8A95EAF7892F0E949C15CFCF9BE5A8
:10177000980F933070F4853A31F0863A39F083E867
:1017800090E00C945C0A81E890E0FBCF82E890E066
:10179000F8CF98E5980F953108F082C0883A09F49F
:1017A00040C0893A09F440C08A3A09F440C08B3AF3
:1017B00009F440C08C3A09F440C08B3B09F440C0A6
:1017C0008C3B09F440C08D3A09F440C0803B09F4D9
:1017D00040C08E3A09F440C08F3A09F440C0813BC2
:1017E00009F440C0823B09F440C0833B09F440C087
:1017F000843B09F440C0853B09F440C0863B09F4B2
:1018000040C0873B09F440C0883B09F440C0893B95
:1018100009F440C08A3B09F440C090E080E00C9499
:10182000720A82EE90E0FBCF89EE90E0F8CF8AEE6C
:1018300090E0F5CF85EB90E0F2CF86EB90E0EFCF34
:1018400083EB90E0ECCF84EB90E0E9CF87EB90E086
:10185000E6CF8CEC90E0E3CF8DEC90E0E0CF83E836
:1018600091E0DDCF8AE891E0DACF82E991E0D7CF4D
:1018700084E991E0D4CF81E292E0D1CF83E292E09B
:10188000CECF84E292E0CBCF85E292E0C8CF86E271
:1018900092E0C5CF87E292E0C2CF8AE292E0BFCF6A
:1018A0000895882309F44BC0823871F40E943A0AE3
:1018B00081FF45C089E30E941D150E94E51589E35B
:1018C0000E945A150C94E515833859F40E943A0A7F
:1018D00080FF35C083E50E941D150E94E51583E554
:1018E000EFCF843859F40E943A0A82FF28C087E477
:1018F0000E941D150E94E51587E4E2CF9CEF980F2A
:10190000913AF0F290E2980F983050F4877091E09D
:1019100001C0990F8A95EAF7892F0E94A215D2CFAC
:101920009BE5980F933020F490E080E00C945C0AE3
:10193000885A853120F490E080E00C94720A089572
:10194000882321F00E949C150C94E51508958823A6
:1019500021F00E94A2150C94E51508958F929F9294
:10196000AF92BF92DF92EF92FF920F931F93CF93AC
:10197000DF937C01D62FC72FFC01058102950F70E4
:10198000128111110E94BB150E941615D82E8823B2
:1019900071F0112321F180E28D0F883000F182E097
:1019A0000E9400150E94161591E0D82ED926EC2F22
:1019B000E295EF70F0E0E152F34F0C94F622F10C57
:1019C000F10C410D410D830D9F0D1E0D1E0DAA0D35
:1019D0001E0D420E420EB50E1E0D1E0DBE0ED12C5A
:1019E000E6CF0C2F0F70C07F11F00295007F1123FE
:1019F000A9F0002359F080E28D0F883010F0D1114A
:101A000009C0802F0E949C150E94E5158D2F0E9411
:101A1000750B14C0802F0E94AD15F6CF8D2F0E943C
:101A2000510C002359F080E28D0F883010F0D11155
:101A300024C0802F0E94A2150E94E515DD2009F424
:101A4000A4C10E94F31480FDA0C1F70112820E947C
:101A5000ED140E946713C7010E94D10E0E94ED147D
:101A6000DF91CF911F910F91FF90EF90DF90BF908A
:101A7000AF909F908F900C948813802F0E94B31585
:101A8000DBCFFC2FFF70BF2EC07FC03219F0B294A5
:101A900080EFB822DD2369F0D13029F1112369F1FB
:101AA000002359F0F701858180FFB0CF8F708583C7
:101AB00004C0112361F0011104C08B2D0E94A00C01
:101AC000BDCF8B2D0130D1F70E94CF15B7CF0111BB
:101AD00006C00E94D2158B2D0E94A70CAFCF0130FB
:101AE00009F4ACCFF6CF112321F0063008F0A6CFD1
:101AF000E4CF053008F0A2CFEECF002361F38D2FA5
:101B00000E94510C9BCF8C2F86958695837069F02F
:101B1000813009F093CF8D2F9C2F9370111102C04B
:101B200090E080E00E94720A89CF8D2F9C2F9370E5
:101B3000111102C090E080E00E945C0A7FCF8D2FDF
:101B4000112329F00E9423190E940F1A77CF0E94B7
:101B50008B19FACF8C2F837009F047C011116ECF0B
:101B60002D2F229526952770220F220F6D2F6F7033
:101B7000862E912CB12CA12C022E04C0880C991C0D
:101B8000AA1CBB1C0A94D2F760E070E0CB01D4FF22
:101B90000FC06FE070E080E090E004C0660F771F38
:101BA000881F991F2A95D2F760957095809590951A
:101BB000C695C695C370C23051F080F46829792962
:101BC0008A299B29C13071F00E94101337CF6829F0
:101BD00079298A299B290E942C1330CF0E94101347
:101BE000C501B4010E94F41229CF8695112311F08A
:101BF0008C2F8170882309F421CF2D2F22952695D3
:101C00002770220F220F6D2F6F70862E912CB12C12
:101C1000A12C022E04C0880C991CAA1CBB1C0A947F
:101C2000D2F760E070E0CB01D4FF0FC06FE070E04E
:101C300080E090E004C0660F771F881F991F2A95E7
:101C4000D2F76095709580959095C695C695C370AE
:101C5000C23051F080F4682979298A299B29C13042
:101C600071F00E94EA13EACE682979298A299B2912
:101C70000E940614E3CE0E94EA13C501B4010E943B
:101C8000CE13DCCEE0E2ED0FE53108F062C0F0E00B
:101C9000E45BF14F0C94F622610E610E610E610E51
:101CA000610E610E610E610E610E610E610E610EBC
:101CB000610E610E610E610E6E0E7C0E830E8A0E39
:101CC000940EDF708C2F8F71112321F00E94671307
:101CD0008D2FF4CE0E9488138D2FFECE112341F05C
:101CE000053008F0ABCE8C2F8F710E94AD13A6CEBD
:101CF000063008F0A3CEF7CF8C2F8F71112339F067
:101D00000E9467139BCE8C2F8F711123C9F30E9401
:101D1000881394CE112329F08C2F8F710E945213B7
:101D20008DCE0E9448138ACE112349F0CF718C2F9B
:101D30000E94671363E08C2F0E94F7147FCE81E02E
:101D40000E940015023008F479CE82E00E9400154E
:101D500075CE112329F0011159CE8C2F8F71D0CF60
:101D60000111CDCE8C2F8F71D2CF4C2F4F706D2F94
:101D7000C7010E9435050E94711260CE4C2F4F7032
:101D80006D2FC7010E949A0659CEDF91CF911F9106
:101D90000F91FF90EF90DF90BF90AF909F908F904A
:101DA00008950F931F93CF93DF93EC01988189815E
:101DB0002B813C81232B39F08F3F19F481E09F3F29
:101DC00019F080E001C081E080FD17C0CE010E94C3
:101DD0005405882391F0688179818A810E94C91411
:101DE0008C010E9422140E94E912B801CE01DF91F9
:101DF000CF911F910F910C94AE0CDF91CF911F9159
:101E00000F9108950E94BB150E94CC150E948E155B
:101E10000E94E5150E94BC1A0E940F1A90E080E013
:101E20000E945C0A90E080E00C94720A0E94AA155D
:101E30000C94020F0E94BF14E92FE295EF70E2505C
:101E4000EE30E0F4F0E0E95DF04F0C94F622350F4F
:101E5000350F3E0F3E0F400F3E0F3E0F3E0F350F2A
:101E6000350F450F3E0F3E0F450F803F19F020F410
:101E7000803E20F481E00895843FE1F380E00895FE
:101E8000803EC0F3813FD1F7F5CF93FB882780F9DF
:101E90000895CF93DF9300D000D01F92CDB7DEB767
:101EA0000F900F900F900F900F90DF91CF910895AA
:101EB000CF93DF9300D000D000D0CDB7DEB7269609
:101EC0000FB6F894DEBF0FBECDBFDF91CF9108955E
:101ED0001F93CF93DF93C091730116E0809174013B
:101EE0008C1304C0DF91CF911F910895D0E01C9F07
:101EF000F0011D9FF00D1124EB58FE4F40815181E0
:101F000062817381848195810E94580F2196C770E8
:101F1000E5CF4091A5015091A6016091A701709174
:101F2000A8018091A9019091AA010C94580F1F93C8
:101F3000CF93DF938091AA01807FD1F48091A70194
:101F40008823B1F080917301D0917401B091A50103
:101F5000C091A6014091A8015091A901A1E0BF3F05
:101F600009F0A0E0BA016095709516E0D81304C09E
:101F7000DF91CF911F91089521E04115510521F086
:101F80002A2FCF3F09F020E090E020FD38C0189FB5
:101F9000F001199FF00D1124EB58FE4F21812C13F5
:101FA0002EC020812B132BC02281211128C0238118
:101FB00034812417350700F1241B350B283C3105EB
:101FC000F0F42091AA012F7020612093AA0126E04D
:101FD000289FF001299FF00D1124E658FE4F8081C3
:101FE0008F708061808385EA91E00E94D10EDF913D
:101FF000CF911F910C94680F260F371FDFCF0196EA
:102000008770B4CFAF92BF92CF92DF92EF92FF92E0
:102010000F931F93CF93DF93CDB7DEB761970FB6C2
:10202000F894DEBF0FBECDBF8C0185E0F801DE0164
:102030001D9601900D928A95E1F7D8014C91119669
:102040005C9111971296EC903091A5016091A601D8
:102050008091A8019091A90121E0009731F06F3F94
:1020600019F421E03F3F09F020E0B22FB170BB2E00
:1020700020FD80C1F801C380D480A090A701AA20D0
:1020800009F427C1C816D906D0F1D601A81BB90B8F
:10209000CD01FF24F394883C910508F0F12C809148
:1020A000AA01982F907FFF2009F4CAC0911187C020
:1020B000FE2C651329C0341327C0E11025C08F7092
:1020C00080618093AA010E94890F85EA91E00E94B5
:1020D000D10E8091AA01F80185838F2D61960FB6EC
:1020E000F894DEBF0FBECDBFDF91CF911F910F914E
:1020F000FF90EF90DF90CF90BF90AF9008958095C4
:1021000090958C0D9D1DC5CF81E0CD2831F05F3FAE
:1021100019F481E04F3F09F080E080FD24C081E0A8
:102120008E25F82FF170DF2E80FF3FC08091730164
:102130002091740136E0821318C04D875E878D852B
:102140009E850E94BF14292F22952F70223008F1FE
:10215000243030F59F7009F1D80115969C91907F3D
:10216000E1F4FB2CBACF80E0DCCF90E0389FF001A7
:10217000399FF00D1124EB58FE4F6181561306C0B4
:102180006081461303C062816E110FC00196877093
:10219000D2CF9F7011F0882321F3805E883008F33E
:1021A000C8010E94D10EBD2CDCCFEE2009F495CFE2
:1021B0008091AA0181608093AA01F12C8ECF6513D2
:1021C00012C0341310C0E1100EC0F8018583C8019D
:1021D0000E94D10E86E0F801A5EAB1E001900D92CF
:1021E0008A95E1F741C04D875E878D859E850E9467
:1021F0001A0F882309F4C8C0EE2009F4C5C08091E5
:10220000AA01803270F02091A5013091A601388793
:102210002F831986DB86CA868C87CE0107960E949B
:10222000D10E86E0F801A5EAB1E001900D928A9501
:10223000E1F70E94970F0E94890FFF24F3944DCF7E
:10224000911115C07C2DD98AC88A6E2D89890E946A
:10225000490F85EA91E00E94D10E86E0E5EAF1E0BF
:10226000DF011D928A95E9F70E94890F36CF651329
:1022700012C0341310C0E1100EC0F8018583C801EC
:102280000E94D10EE5EAF1E086E0DF011D928A9519
:10229000E9F7FA2C22CF4D875E878D859E850E94B7
:1022A0001A0F882309F470C0EE2009F46DC08091E4
:1022B000AA01803208F4B5CF2091A5013091A60182
:1022C0003A8329831B82DD82CC828E83CE010196E4
:1022D000A6CFC816D90638F1F601E81BF90BCF01D5
:1022E000F12C883C910508F03DC0FE2CEE2009F44D
:1022F0004BC0651326C0341324C08091AA0180FD11
:1023000017C0982F907FA1F0D80115968C93159740
:10231000903F09F45CCF982F907F905F8F70892B4E
:1023200015968C9354CF809590958C0D9D1DD8CF8C
:1023300086E0F801A5EAB1E001900D928A95E1F7F7
:10234000CCCE4D875E878D859E850E941A0F8111A8
:1023500068CF8091AA0181608093AA01C8010E9480
:10236000D10EBBCE7C2DD98AC88A6E2D89890E9458
:10237000490F73CFEE2041F04D875E878D859E8596
:102380000E941A0F81114DCFC8010E94D10E55CF66
:102390001F93CF93DF93CDB7DEB72C970FB6F8948A
:1023A000DEBF0FBECDBF4F83588769877A878B8783
:1023B0009C87CE0107960E940210882309F442C030
:1023C0009F8188852A853B85232B39F08F3F19F41F
:1023D00081E09F3F19F080E001C081E080FD08C0EE
:1023E0004F81588569857A858B859C850E94580F19
:1023F00016E08091730190917401891709F467C008
:10240000819FC00111248B589E4F0E940210882387
:1024100009F45DC0E09173011E9FF0011124EB5897
:10242000FE4F4081518162817381848195810E9438
:10243000580F8091730190E00196877099278093DF
:102440007301D7CF86E0FE013796DE011196019029
:102450000D928A95E1F79F8188852A853B85232BFC
:1024600039F08F3F19F481E09F3F19F080E001C0FF
:1024700081E080FDBDCF2091740130E0C90101965B
:1024800087709927409173014817190699F096E0D3
:10249000929FD001939FB00D1124AB58BE4FFE0107
:1024A000319601900D929A95E1F7809374010E9404
:1024B000680F9ECF0E94160F109274011092730144
:1024C00086E0E5EAF1E0DF011D928A95E9F72C96B6
:1024D0000FB6F894DEBF0FBECDBFDF91CF911F9135
:1024E0000895EF92FF920F931F93CF93DF938C0188
:1024F000892B81F0F12CEE24E394E8012196F80178
:102500008491843770F4843008F05FC08130B1F07A
:102510008230A1F1DF91CF911F910F91FF90EF9049
:102520000895853709F44CC008F43DC09CE7980F26
:10253000903780F78F770E94510C49C00E5F1F4F74
:10254000FE01849190E2980F983060F48770FE2D20
:1025500001C0FF0F8A95EAF78F2F0E94BE150E94D7
:10256000E51502C00E94750B8F2D815030F2EFE906
:10257000FFE03197F1F700C00000F7CF0E5F1F4F6B
:10258000FE01849190E2980F983050F48770FE2DF0
:1025900001C0FF0F8A95EAF78F2F0E94C415DFCF85
:1025A0000E94510CE1CF0E5F1F4FFE01C491C1503C
:1025B000D8F28FE99FE00197F1F700C00000F7CF54
:1025C0000E5F1F4FFE01F490CFCF0E94750B8E015E
:1025D000CBCF08956093D7017093D8018093D90130
:1025E0009093DA010C94020F0F931F930091D7017F
:1025F0001091D8012091D9013091DA01DC01CB0191
:10260000802B912BA22BB32B8093D7019093D801D1
:10261000A093D901B093DA011F910F910C94020F8E
:102620000F931F930091D7011091D8012091D901E8
:102630003091DA01DC01CB0180239123A223B32363
:102640008093D7019093D801A093D901B093DA0178
:102650001F910F910C94020F0F931F930091D701BC
:102660001091D8012091D9013091DA01DC01CB0120
:1026700080279127A227B3278093D7019093D80171
:10268000A093D901B093DA011F910F910C94020F1E
:102690001092D3011092D4011092D5011092D6015C
:1026A0000C94020F41E050E060E070E004C0440F81
:1026B000551F661F771F8A95D2F74093D301509319
:1026C000D4016093D5017093D6010C94020F41E0C0
:1026D00050E060E070E004C0440F551F661F771F94
:1026E0008A95D2F78091D3019091D401A091D50120
:1026F000B091D601842B952BA62BB72B8093D301B9
:102700009093D401A093D501B093D6010C94020FFD
:1027100041E050E060E070E004C0440F551F661FC8
:10272000771F8A95D2F74095509560957095809166
:10273000D3019091D401A091D501B091D601842309
:102740009523A623B7238093D3019093D401A0931C
:10275000D501B093D6010C94020F41E050E060E047
:1027600070E004C0440F551F661F771F8A95D2F78B
:102770008091D3019091D401A091D501B091D6015F
:1027800084279527A627B7278093D3019093D40158
:10279000A093D501B093D6010C94020F0F931F9311
:1027A0000091D3011091D4012091D5013091D6012F
:1027B000DC01CB01802B912BA22BB32B8093D30177
:1027C0009093D401A093D501B093D6011F910F919E
:1027D0000C94020F0F931F930091D3011091D40119
:1027E0002091D5013091D601DC01CB0180239123CA
:1027F000A223B3238093D3019093D401A093D50156
:10280000B093D6011F910F910C94020F0F931F9359
:102810000091D3011091D4012091D5013091D601BE
:10282000DC01CB0180279127A227B3278093D30116
:102830009093D401A093D501B093D6011F910F912D
:102840000C94020F08952CE0929F800D1124982F74
:10285000977071E001C0770F9A95EAF78695869593
:10286000869525E0829FC001112450E040E0A62F0C
:10287000B0E0FC01E40FF51FE555FE4F60819D01BE
:10288000042E02C0369527950A94E2F7217021950F
:1028900026272723262720834F5F5F4F453051058A
:1028A00041F708952CE0929F800D1124982F977086
:1028B00086958695869525E0829FA001112470E07B
:1028C00060E080E0FA01E60FF71FE555FE4F20813A
:1028D00030E0092E02C0369527950A94E2F7217060
:1028E0003327062E01C0220F0A94EAF7822B6F5F6E
:1028F0007F4F6530710531F70895BF92CF92DF9217
:10290000EF92FF920F931F93CF93DF938C01C090B0
:10291000D301D090D401E090D501F090D601809100
:10292000D7019091D801A091D901B091DA01C82ABC
:10293000D92AEA2AFB2ACFE1D0E0BC2ED701C60172
:102940000C2E04C0B695A795979587950A94D2F753
:1029500080FD0EC0219788F7B12C8B2DDF91CF9190
:102960001F910F91FF90EF90DF90CF90BF9008954F
:10297000B8018C2F0E94B706019761F3EECFCF9379
:10298000DF93EC010E947D14BE01DF91CF910C9486
:10299000B7061F93CF93DF93EB01909172019923B8
:1029A00031F0CB01DF91CF911F910C94BF1488239C
:1029B00079F0CB010E947D14182F682FCE010E9460
:1029C0002314BE01812FDF91CF911F910C94B70684
:1029D000CB010E945214182FF4CF8091DB01859512
:1029E0008595859508958091DB018770089598E01D
:1029F000899F90011124622B6093DB010C94671373
:102A00009091DB01809589238093DB01282F27702B
:102A100061F4282F082E000C330B9217130629F0AF
:102A20008595859585950C94881308959091DB0183
:102A3000977081E009F480E0089590911201992344
:102A4000E1F09091310297FF18C0E82FE695E695E6
:102A5000E695EF3139F12091000130910101E20F4B
:102A6000F32FF11D877021E030E001C0220F8A951D
:102A7000EAF78181822B81830895209100013091B2
:102A80000101F90132969FEF40E05191851751F015
:102A90009F3F19F4511101C0942F4F5F4E31A9F798
:102AA0009F3F09F40895290F311D97FD3A95F901CB
:102AB00082830895909112019923F1F0909131024F
:102AC00097FF1AC0E82FE695E695E695EF3129F1D4
:102AD0002091000130910101E20FF32FF11D282F09
:102AE000277081E090E001C0880F2A95EAF7809571
:102AF0009181892381830895209100013091010102
:102B0000F9013296205E3F4F9191891303C0DF0196
:102B100011971C92E217F307B9F7089581E090E04E
:102B2000E0910001F0910101E80FF91F1082019678
:102B300080329105A9F708959091FF01892B809328
:102B4000FF010895982F90958091FF01892380932C
:102B5000FF0108951092FF0108959091FE01892BC5
:102B60008093FE010895982F90958091FE0189230E
:102B70008093FE0108951092FE0108959091FD0149
:102B8000892B8093FD010895982F90958091FD01E8
:102B900089238093FD0108951092FD01089580938B
:102BA000DC0108951092DC0108952091000130911C
:102BB0000101F9013196205E3F4F80E09191911122
:102BC0008F5FE217F307D1F70895E0910001F091CC
:102BD00001018091FF018083E0910001F0910101EA
:102BE00080819091FE01892B8083E0910001F0911A
:102BF000010180819091FD01892B80839091DC01FE
:102C0000992361F0E0910001F09101018081892B0D
:102C100080830E94D51581111092DC018091000102
:102C2000909101010C94460A6DEE7EEF90E080E0F9
:102C30000E94302360E082E090E00E941E2360E06A
:102C400083E090E00E941E2360E084E090E00E9418
:102C50001E2360E085E090E00C941E2390E080E06D
:102C60000E94182321E08D3E9E4F09F020E0822F24
:102C7000089582E090E00C941023682F82E090E0A9
:102C80000C941E2383E090E00C941023682F83E0C3
:102C900090E00C941E2384E090E00C941023682FA5
:102CA00084E090E00C941E2380913702843039F147
:102CB0001092010288E190E020E40FB6F894A89504
:102CC000809360000FBE2093600080E00E94980611
:102CD00083B7817F846083BF83B7816083BF78942B
:102CE000889583B78E7F83BF0FB6F894A89580919F
:102CF0006000886180936000109260000FBE0895AC
:102D000008950895CF930E9480160E9469090E9439
:102D10008116C0E08C2F0E942B0A892B31F4CF5FE3
:102D2000C530C1F780E0CF91089581E0FCCF0E94CB
:102D3000160F0E943A0A0C9498061F920F920FB633
:102D40000F9211248F939F93AF93BF9380910102B1
:102D5000811113C080912D0290912E02A0912F021B
:102D6000B09130024196A11DB11D80932D02909328
:102D70002E02A0932F02B0933002BF91AF919F918A
:102D80008F910F900FBE0F901F90189582E084BD19
:102D900093E095BD9AEF97BD80936E0008952FB78D
:102DA000F89480912D0290912E02A0912F02B09163
:102DB00030022FBF0895CF92DF92EF92FF920F93D0
:102DC0001F932FB7F89440912D0250912E026091DD
:102DD0002F02709130022FBF6A017B01EE24FF2485
:102DE0008C0130E020E0C016D106E206F30650F078
:102DF000481B590BCA011F910F91FF90EF90DF9074
:102E0000CF90089541505109F3CF1F920F920FB602
:102E10000F9211248F939F93AF93BF9380912D02B4
:102E200090912E02A0912F02B09130020196A11D27
:102E3000B11D80932D0290932E02A0932F02B09388
:102E40003002BF91AF919F918F910F900FBE0F9065
:102E50001F9018950E94B61EF8942FEF87EA91E60E
:102E6000215080409040E1F700C0000087E090EBE7
:102E7000DC018093400290934102A0934202B09300
:102E8000430288E19CE00FB6F894A8958093600017
:102E90000FBE90936000FFCFAF92BF92CF92DF92B0
:102EA000EF92FF920F931F93CF93C0E0CC24C39473
:102EB000D12CE82EF12C8C2F0E942B0A5C0110E003
:102EC00000E0C601002E02C0880F991F0A94E2F7A5
:102ED0008A219B21892B99F40F5F1F4F0C3011051C
:102EE00081F7CF5FC53039F780E0CF911F910F9107
:102EF000FF90EF90DF90CF90BF90AF900895602F3C
:102F00007C2F80E00E949B06E816F90629F781E0F5
:102F1000ECCFCF93C82F8CE20E944C17882321F06E
:102F20008C2FCF910C944C1780E0CF910895CF93C4
:102F30000E942E16811102C00E941416C5E608C018
:102F40000E9469098FE39CE90197F1F700C0000036
:102F5000C150B1F789E20E9489178111EFC08AE25E
:102F60000E94891781110E94141685E00E9489171A
:102F700081110E942A170E9439168093000287E06F
:102F80000E948917882371F08BE10E94891788239A
:102F900009F4B1C090910002892F8D7F91FF82606A
:102FA00080930002809100020E943D160E944B1601
:102FB00090E0909332028093310280EE0E94891754
:102FC000882341F090913102892F8E7F90FF81609C
:102FD0008093310289E30E948917882341F0909100
:102FE0003102892F8D7F91FF82608093310282EEC2
:102FF0000E948917882341F090913102892F8B7F9D
:1030000092FF84608093310286EE0E9489178823A4
:1030100041F090913102892F877F93FF88608093E0
:10302000310283EE0E948917882341F0909131028A
:10303000892F8F7E94FF80618093310285E30E9407
:103040008917882341F090913102892F8F7D95FF58
:1030500080628093310281E30E948917882341F0C6
:1030600090913102892F8F7B96FF8064809331028B
:1030700081E10E948917882341F090913102892FC4
:1030800097FB87F9805880933102809131020E942A
:103090004F1687E20E948917C82F8EE10E94891778
:1030A0008111C2608FE10E9489178111C46080E2A2
:1030B0000E9489178111C86081E20E9489178111DD
:1030C000C06182E20E9489178111C06283E20E947E
:1030D00089178111C06484E20E948917882341F115
:1030E000C0688C2F0E9446166C2F70E090E080E044
:1030F000CF910C94EA128EE00E948917882339F050
:1031000090910002892F8B7F92FF846049CF80E1EC
:103110000E94891790910002882329F0892F877FC8
:1031200093FF88603DCF892F8E7F90FF816038CFDD
:10313000C111D7CF0E944216682FD7CFCF910895E3
:103140008091040280FF12C06091050185E0689FB4
:10315000B00111247595679575956795603871056F
:10316000A8F561157105A1F1862F089581FF09C0A9
:103170006091050185E0689FB00111247595679500
:10318000EDCF82FF07C06091050185E0689FB00127
:103190001124E4CF209105022223A9F0909104018B
:1031A0006091050185E0689FB00111242917B0F6F0
:1031B000269FA001279F500D1124692F70E0CA019E
:1031C0000E94E222CBCF65E070E0CECF8FE708957A
:1031D00081E008958091040280FF0CC0609103019A
:1031E00070E075956795759567956115710549F15D
:1031F000862F089581FF06C06091030170E07595E8
:103200006795F3CF6091030182FD0BC09091050299
:103210009923A1F06091020180910301961738F083
:10322000682F70E06038710500F38FE70895899F7B
:10323000C001112470E00E94E222F4CF61E070E04E
:10324000D7CF81E00895803F31F40E94A018819586
:10325000809308020895813F19F40E94A018F8CFC6
:10326000823F31F40E94A01881958093070208954F
:10327000833F19F40E94A018F8CF893F29F40E94D7
:10328000EA188093090208958A3F21F40E94EA18FF
:103290008195F7CF8B3F31F40E94EA188195809396
:1032A0000A0208958C3F19F40E94EA18F8CF843F6F
:1032B00031F4809106028160809306020895853F73
:1032C00021F4809106028260F7CF863F21F480913D
:1032D00006028460F1CF873F21F480910602886066
:1032E000EBCF883F21F4809106028061E5CF8D3FCE
:1032F00031F48091040281608093040208958E3F2E
:1033000021F4809104028260F7CF8F3FB9F780915A
:1033100004028460F1CF803FC1F48091080287FDF0
:10332000109208028091070281110EC0809108025C
:1033300081110AC080910902811106C080910A02A0
:10334000811102C0109205020895813F29F48091F5
:10335000080218162CF3E6CF90910702823F29F459
:1033600097FFE0CF10920702DDCF833F19F41916C3
:10337000CCF3D8CF893F39F480910902181694F61E
:1033800010920902CFCF8A3F29F48091090287FF6A
:10339000C9CFF6CF8B3F39F480910A0287FFC2CFA5
:1033A00010920A02BFCF8C3F29F480910A021816AE
:1033B000BCF3B8CF843F31F4809106028E7F8093B6
:1033C0000602B0CF853F21F4809106028D7FF7CFB2
:1033D000863F21F4809106028B7FF1CF873F21F455
:1033E00080910602877FEBCF883F21F4809106020F
:1033F0008F7EE5CF8D3F31F4809104028E7F8093E4
:10340000040290CF8E3F21F4809104028D7FF7CF8C
:103410008F3F09F087CF809104028B7FF0CF86E049
:1034200092E00E94510A0E94CF169093030280936B
:10343000020208951F93CF93DF938091020290912F
:1034400003020E94DB16AC01909105022091060157
:1034500030E0911106C0209107018AE0289F900179
:1034600011244217530780F080910702C09108028F
:1034700010910902D0910A0281110AC0C11178C0CD
:10348000111176C0D11174C0DF91CF911F910895B1
:103490009F3F19F09F5F90930502181624F40E9435
:1034A000A018809307028091070287FF05C00E9441
:1034B000A0188195809307021C1624F40E94A0187E
:1034C000809308028091080287FF05C00E94A0181F
:1034D00081958093080260910702662331F1C091C3
:1034E0000802CC2311F1062E000C770B880B990BE8
:1034F0000E94E92123E333E343E35FE30E944D228B
:103500000E94B121609307026C2FCC0F770B880BC0
:10351000990B0E94E92123E333E343E35FE30E9435
:103520004D220E94B12160930802111624F40E94DA
:10353000EA18809309028091090287FF05C00E9462
:10354000EA188195809309021D1624F40E94EA1856
:1035500080930A0280910A0287FF05C00E94EA1840
:10356000819580930A02DF91CF911F910C940F1ADD
:103570009F3F09F08FCFA0CF85E0E6E0F2E0DF01CA
:103580001D928A95E9F7109205021092040208959F
:1035900080912B020895CF93DF9300D01F92CDB777
:1035A000DEB79C0180913702843019F593E099834E
:1035B0003B832A839093E9008FEF9091E80081503C
:1035C00095FD06C095ED9A95F1F700008111F5CFB4
:1035D0008091E80085FF0DC050E040E063E070E0BE
:1035E000CE0101960E94261D8091E8008E7780937F
:1035F000E8000F900F900F90DF91CF910895CF9337
:10360000DF9300D01F92CDB7DEB720913702243070
:1036100031F522E02983805891099B838A8383E0D6
:103620008093E9008FEF9091E800815095FD06C0EE
:1036300095ED9A95F1F700008111F5CF8091E800A2
:1036400085FF0DC050E040E063E070E0CE010196E0
:103650000E94261D8091E8008E778093E8000F90ED
:103660000F900F90DF91CF9108959C0180913702C8
:103670008430F9F482E08093E9009FEF8091E800C4
:10368000915085FD06C085ED8A95F1F700009111F6
:10369000F5CF8091E80085FF0CC050E040E065E088
:1036A00070E0C9010E94261D8091E8008E7780930A
:1036B000E8000895CF93DF93EC01809137028430C6
:1036C000F1F4909112019923E9F09091310297FF62
:1036D00019C08093E9008FEF9091E800815095FD2B
:1036E00006C095E19A95F1F700008111F5CF809120
:1036F000E80050E040E060E270E085FD1AC0DF9134
:10370000CF91089581E08093E9008FEF9091E800D8
:10371000815095FD06C095ED9A95F1F70000811155
:10372000F5CF8091E80085FFEACF50E040E068E007
:1037300070E0CE010E94261D8091E8008E77809374
:10374000E80080E2FE01ABE0B2E001900D928A95C4
:10375000E1F7D5CF80913602811109C00E94B61ED3
:103760000E94131F8091E20084608093E20008951C
:10377000109236020895089508950C94971642E029
:1037800061EC81E00E94341E42E061EC82E00E9424
:10379000341E42E061EC83E00E94341E42E261ECA0
:1037A00084E00C94341E80913902833009F455C0B2
:1037B00030F4813071F1823009F491C008958A307B
:1037C00009F47DC08B3009F463C0893009F044C02E
:1037D00080913802813209F03FC080913C02909183
:1037E0003D02009711F00397B9F58091E800877FBB
:1037F0008093E8008091E80082FF2AC08091F10068
:1038000080932B028091E8008B778093E8000C94E2
:10381000681E80913802813AF9F48091E800877F30
:103820008093E80080913C0290913D02892B61F4E5
:1038300060E28BE092E070E00E94751D8091E800EC
:103840008B778093E800089560E090E080E0F3CF0C
:10385000809137028111CECF089580913802813A4C
:10386000D9F780913C0290913D02892BA9F7809174
:10387000E800877F8093E8008091E80080FFFCCF1C
:10388000809112018093F1008091E8008E77BDCF86
:1038900080913802813201F780913C0290913D0283
:1038A000892BD1F68091E800877F8093E8000E9401
:1038B000681E80913A02809312010C94160F809139
:1038C0003802813249F68091E800877F8093E800D2
:1038D0000E94681E80913B0280932C020895809183
:1038E0003802813A09F0B8CF8091E800877F809351
:1038F000E8008091E80080FFFCCF80912C02C2CFCD
:1039000084B7877F84BF0FB6F894A8958091600034
:10391000886180936000109260000FBE80E8809301
:103920006100109261000E94890A0E94B61E0E94E6
:10393000131F8091E20084608093E20078940E94DB
:1039400095210E948B0A88E091E00E94350A8091BF
:103950003702853019F00E94910AF9CF0E9454165F
:1039600080913502882399F30E948216882379F387
:103970000E94101DECCF292F33272330310579F118
:1039800058F421303105F1F02230310519F190E081
:1039900080E030E020E01AC02132310599F1223276
:1039A0003105A9F7643098F770E0FB01EE0FFF1FB7
:1039B000E85DFE4F208131816C5D7E4FFB0180818F
:1039C00090E004C082E190E029EC38E0FA01318314
:1039D000208308958DE690E02CE538E0F7CF992715
:1039E0008130910561F028F0029789F6ECE2F8E069
:1039F00002C0E8E5F8E0849190E09F01E7CFE0E4C1
:103A0000F8E0F9CF643008F0C2CFE62FF0E0EE0F17
:103A1000FF1FE05DFE4F2081318189E090E0D6CF2D
:103A200080E189BD82E189BD09B400FEFDCF8091AE
:103A3000D8008F7D8093D8008091E00082608093D1
:103A4000E0008091E00081FDFCCF0895AF92BF922D
:103A5000CF92DF92FF920F931F93CF93DF936C016E
:103A6000EB018A010E94871EF82E811123C00115E7
:103A7000110539F0F80180819181C81BD90BC80E5E
:103A8000D91EB12CA12C2097A9F08091E80085FDCA
:103A900022C08091E8008E778093E800011511051F
:103AA000A1F0F80180819181A80EB91EB182A08297
:103AB00085E0F82E8F2DDF91CF911F910F91FF9010
:103AC000DF90CF90BF90AF9008950E94871E88230B
:103AD000D1F2F82EEFCFF60181916F018093F100C2
:103AE0002197FFEFAF1ABF0ACECFFC0180913E02B3
:103AF00090913F0286179707A0F06115710529F490
:103B00009091E8009E779093E80090E06115710530
:103B100051F4911108C08091E80082FF35C080E027
:103B20000895BC01F2CF809137028823C9F1853016
:103B3000C9F18091E80083FD31C08091E80082FDE9
:103B4000EACF8091E80080FFE1CF2091F3008091DF
:103B5000F200322F282F6115710519F02830310538
:103B600058F091E02830310509F090E02091E8000C
:103B70002E772093E800CACF81918093F1006150A5
:103B800071092F5F3F4FE7CF80913702882341F0C3
:103B9000853041F08091E80083FFBDCF81E008953A
:103BA00082E0089583E00895FC0180913E029091A7
:103BB0003F0286179707A0F06115710529F48091DF
:103BC000E8008E778093E80090E06115710551F46C
:103BD000911108C08091E80082FF36C080E008950E
:103BE000BC01F2CF809137028823D1F18530D1F129
:103BF0008091E80083FD32C08091E80082FDEACF29
:103C00008091E80080FFE1CF2091F3008091F200E5
:103C1000322F282F6115710519F02830310558F021
:103C200091E02830310509F090E08091E8008E772E
:103C30008093E800CACF84918093F100319661505F
:103C400071092F5F3F4FE6CF80913702882341F003
:103C5000853041F08091E80083FFBCCF81E008957A
:103C600082E0089583E00895982F973028F08F70B0
:103C70008093E90081E008959093E900242F762F46
:103C800050E0981731F07091EC002091ED005091C8
:103C9000F00021FD02C09F5FE8CF3091EB003E7F36
:103CA0003093EB003091ED003D7F3093ED0030918B
:103CB000EB0031603093EB007093EC002093ED004B
:103CC0005093F0002091EE0027FDE5CF80E00895AD
:103CD0008091380287FF13C08091E80082FF06C000
:103CE0008091E8008B778093E80004C080913702D0
:103CF0008111F2CF0895809137028823D9F3809102
:103D0000E80080FFF8CF8091E8008E77ECCF20911B
:103D1000E4003091E50085E69091EC0090FF06C04C
:103D20009091E80090FF06C080E008959091E8002F
:103D300092FDFACF90913702992391F0953091F04E
:103D40009091EB0095FD10C04091E4005091E5008A
:103D50002417350709F381509A01F1F684E008959C
:103D600082E0089583E0089581E008950E94241F71
:103D70000E942C1FE0EEF0E0808181608083E8EDFE
:103D8000F0E080818F77808319BCA7EDB0E08C9143
:103D90008E7F8C9380818F7E80831092360208956F
:103DA0000F931F93CF93DF930E94241F0E942C1F19
:103DB000C8EDD0E088818F77888388818068888388
:103DC00088818F7D888319BC10923702109233024C
:103DD000109235021092340200EE10E0F80180815A
:103DE0008B7F808388818160888342E060E080E00F
:103DF0000E94341EE1EEF0E080818E7F8083E2EE4F
:103E0000F0E0808181608083808188608083F80118
:103E100080818E7F8083888180618883DF91CF91CC
:103E20001F910F910895E8EDF0E080818F7E8083EF
:103E3000E7EDF0E080818160808384E082BF81E0F3
:103E4000809336020C94D01EE8EDF0E080818E7FE6
:103E500080831092E20008951092DA001092E1003F
:103E600008951F920F920FB60F9211242F933F9334
:103E70004F935F936F937F938F939F93AF93BF9372
:103E8000EF93FF938091E10082FF0BC08091E200ED
:103E900082FF07C08091E1008B7F8093E1000E9448
:103EA00094218091DA0080FF19C08091D80080FFB2
:103EB00015C08091DA008E7F8093DA008091D9005E
:103EC00080FF94C080E189BD82E189BD09B400FE14
:103ED000FDCF81E0809337020E94AA1B8091E10010
:103EE00080FF19C08091E20080FF15C08091E20040
:103EF0008E7F8093E2008091E20080618093E200F7
:103F00008091D80080628093D80019BC85E08093AE
:103F100037020E94BC1B8091E10084FF29C0809180
:103F2000E20084FF25C080E189BD82E189BD09B43A
:103F300000FEFDCF8091D8008F7D8093D8008091C6
:103F4000E1008F7E8093E1008091E2008F7E80937C
:103F5000E2008091E20081608093E2008091330270
:103F6000882309F449C084E0809337020E94BD1B76
:103F70008091E10083FF29C08091E20083FF25C08A
:103F80008091E100877F8093E10082E08093370297
:103F9000109233028091E1008E7F8093E100809146
:103FA000E2008E7F8093E2008091E2008061809346
:103FB000E20042E060E080E00E94341E8091F00068
:103FC00088608093F0000E94BB1BFF91EF91BF912E
:103FD000AF919F918F917F916F915F914F913F91A1
:103FE0002F910F900FBE0F901F90189519BC109233
:103FF00037020E94B81B72CF8091E30087FD02C098
:1040000081E0B2CF83E0B0CF1F920F920FB60F9234
:1040100011242F933F934F935F936F937F938F93CD
:104020009F93AF93BF93CF93EF93FF93C091E9001A
:10403000CF708091EC001092E9008091F000877FB2
:104040008093F00078940E9440201092E9008091C3
:10405000F00088608093F000C093E900FF91EF9139
:10406000CF91BF91AF919F918F917F916F915F9110
:104070004F913F912F910F900FBE0F901F90189569
:104080001F93CF93DF93CDB7DEB7AA970FB6F894FF
:10409000DEBF0FBECDBFE8E3F2E08091F100819377
:1040A00022E0E034F207C9F70E94D31B8091E800B8
:1040B00083FF42C080913802909139029A3008F013
:1040C0003BC0E92FF0E0E959FF4D0C94F622712036
:1040D00095209C2095209C20F02012219C20672177
:1040E0007421803879F0823839F580913C028F70E4
:1040F0008093E9008091EB0085FB882780F910927E
:10410000E90006C0809134029091350291118260DD
:104110009091E800977F9093E8008093F1001092CF
:10412000F1008091E8008E772DC0282F2D7F21F49B
:104130008823D1F0823059F18091E80083FF0AC0D2
:104140008091E800877F8093E8008091EB00806297
:104150008093EB00AA960FB6F894DEBF0FBECDBFDA
:10416000DF91CF911F91089580913A02813021F71C
:10417000933009F080E0809335021092E90080913D
:10418000E800877F8093E8000E94681ED5CF809169
:104190003A028111F2CF80913C028F7069F28093D4
:1041A000E9002091EB0020FFE8CF933031F48091BB
:1041B000EB0080628093EB00E0CF9091EB00906188
:1041C0009093EB0021E030E001C0220F8A95EAF7DE
:1041D0002093EA001092EA008091EB008860EACF19
:1041E0008111AACF10913A021F778091E300807865
:1041F000812B8093E3008091E800877F8093E80023
:104200000E94681E8091E80080FFFCCF8091E3004F
:1042100080688093E30083E0111101C082E0809305
:1042200037028ACF8058823008F086CF80913A02D8
:1042300090913B028C3D23E09207A1F583E08A83B5
:104240008AE289834FB7F894DE01139620E03EE0BE
:1042500051E2E32FF0E050935700E49120FF03C0B8
:10426000E295EF703F5FEF708E2F90E0EA30C0F084
:10427000C7968D939D932F5F243159F74FBF80913F
:10428000E800877F8093E8006AE270E0CE01019643
:104290000E94751D8091E8008B778093E8004CCFD9
:1042A000C096E7CFAE014F5F5F4F60913C020E9426
:1042B000BB1CBC01892B09F43FCF9091E800977F8C
:1042C0009093E80089819A810E94D41DE3CF8038C1
:1042D00009F032CF8091E800877F8093E8008091D9
:1042E00033028093F1001DCF811126CF90913A02C5
:1042F000923008F021CF8091E800877F8093E8001A
:10430000909333020E94681E80913302882331F01B
:1043100084E0809337020E94BF1B0ECF8091E300A0
:1043200087FDF6CF81E0F5CF0895CF9380913702D6
:10433000882399F0C091E900CF708091EC0080FD56
:104340000EC080E0C82B1092E9008091E80083FD48
:104350000E944020CF70C093E900CF91089580E87B
:10436000F1CF0E94B8216894B1110C9447220895AE
:104370000E942C2288F09F5798F0B92F9927B751A7
:10438000B0F0E1F0660F771F881F991F1AF0BA95F9
:10439000C9F714C0B13091F00E944622B1E00895EF
:1043A0000C944622672F782F8827B85F39F0B93FE1
:1043B000CCF3869577956795B395D9F73EF49095AC
:1043C0008095709561957F4F8F4F9F4F0895E8942A
:1043D00009C097FB3EF490958095709561957F4F4D
:1043E0008F4F9F4F9923A9F0F92F96E9BB279395FB
:1043F000F695879577956795B795F111F8CFFAF40B
:10440000BB0F11F460FF1BC06F5F7F4F8F4F9F4F3B
:1044100016C0882311F096E911C0772321F09EE899
:10442000872F762F05C0662371F096E8862F70E0FF
:1044300060E02AF09A95660F771F881FDAF7880FD9
:104440009695879597F9089557FD9058440F551FF5
:1044500059F05F3F71F04795880F97FB991F61F006
:104460009F3F79F087950895121613061406551F7D
:10447000F2CF4695F1DF08C0161617061806991FE9
:10448000F1CF86957105610508940895E894BB27DE
:1044900066277727CB0197F908950E9460220C9434
:1044A000D1220E94C32238F00E94CA2220F0952314
:1044B00011F00C94BA220C94C02211240C944722BF
:1044C0000E94242270F3959FC1F3950F50E0551F71
:1044D000629FF001729FBB27F00DB11D639FAA2759
:1044E000F00DB11DAA1F649F6627B00DA11D661FA8
:1044F000829F2227B00DA11D621F739FB00DA11DC9
:10450000621F839FA00D611D221F749F3327A00D82
:10451000611D231F849F600D211D822F762F6A2F1E
:1045200011249F5750409AF0F1F088234AF0EE0F83
:10453000FF1FBB1F661F771F881F91505040A9F7B0
:104540009E3F510580F00C94BA220C9447225F3FA5
:10455000E4F3983ED4F3869577956795B795F795EC
:10456000E7959F5FC1F7FE2B880F911D9695879564
:1045700097F9089597F99F6780E870E060E00895E3
:104580009FEF80EC089500240A941616170618066B
:104590000906089500240A94121613061406050647
:1045A0000895092E0394000C11F4882352F0BB0FD8
:1045B00040F4BF2B11F460FF04C06F5F7F4F8F4F3B
:1045C0009F4F089597FB072E16F4009407D077FDB0
:1045D00009D00E94FC2207FC05D03EF490958195FD
:1045E0009F4F0895709561957F4F0895EE0FFF1FBF
:1045F0000590F491E02D0994AA1BBB1B51E107C063
:10460000AA1FBB1FA617B70710F0A61BB70B881F62
:10461000991F5A95A9F780959095BC01CD010895F1
:10462000F999FECF92BD81BDF89A992780B508957A
:10463000A8E1B0E042E050E00C943823262FF9992D
:10464000FECF92BD81BDF89A019700B4021639F0F1
:104650001FBA20BD0FB6F894FA9AF99A0FBE0895C2
:104660000196272F0E941F230C941E23DC01CB01EF
:10467000FC01F999FECF06C0F2BDE1BDF89A319672
:1046800000B40D9241505040B8F70895F894FFCF10
:10469000DD012808140A321EC81A5A1B351BFF1ADE
:1046A000CB1A0166C6343536323331F7F6F5F4935A
:1046B00092919094404D363997094A091409DB08C4
:0846C0006E088708A008B90884
:00000001FF
